{"address":"0x8B4B57282454690d7d543d08f92FE70F28C845A7","bytecode":"0x6080604052348015600f57600080fd5b50600160008190555033600160006101000a81548173ffffffffffffffffffffffffffffffffffffffff021916908373ffffffffffffffffffffffffffffffffffffffff16021790555061239a806100686000396000f3fe60806040526004361061004e5760003560e01c8063314e36301461005a57806389476069146100835780638da5cb5b146100ac578063c31c9c07146100d7578063f04f27071461010257610055565b3661005557005b600080fd5b34801561006657600080fd5b50610081600480360381019061007c9190611198565b61012b565b005b34801561008f57600080fd5b506100aa60048036038101906100a59190611220565b610347565b005b3480156100b857600080fd5b506100c161053d565b6040516100ce919061125c565b60405180910390f35b3480156100e357600080fd5b506100ec610563565b6040516100f991906112d6565b60405180910390f35b34801561010e57600080fd5b50610129600480360381019061012491906115f6565b61057b565b005b600160009054906101000a900473ffffffffffffffffffffffffffffffffffffffff1673ffffffffffffffffffffffffffffffffffffffff163373ffffffffffffffffffffffffffffffffffffffff16146101bb576040517f08c379a00000000000000000000000000000000000000000000000000000000081526004016101b29061172a565b60405180910390fd5b600081116101fe576040517f08c379a00000000000000000000000000000000000000000000000000000000081526004016101f590611796565b60405180910390fd5b6000600167ffffffffffffffff81111561021b5761021a611302565b5b6040519080825280602002602001820160405280156102495781602001602082028036833780820191505090505b5090508381600081518110610261576102606117b6565b5b602002602001019073ffffffffffffffffffffffffffffffffffffffff16908173ffffffffffffffffffffffffffffffffffffffff16815250506000600167ffffffffffffffff8111156102b8576102b7611302565b5b6040519080825280602002602001820160405280156102e65781602001602082028036833780820191505090505b50905082816000815181106102fe576102fd6117b6565b5b602002602001018181525050600084888860405160200161032193929190611949565b604051602081830303815290604052905061033d838383610769565b5050505050505050565b600160009054906101000a900473ffffffffffffffffffffffffffffffffffffffff1673ffffffffffffffffffffffffffffffffffffffff163373ffffffffffffffffffffffffffffffffffffffff16146103d7576040517f08c379a00000000000000000000000000000000000000000000000000000000081526004016103ce9061172a565b60405180910390fd5b60008173ffffffffffffffffffffffffffffffffffffffff166370a08231306040518263ffffffff1660e01b8152600401610412919061125c565b602060405180830381865afa15801561042f573d6000803e3d6000fd5b505050506040513d601f19601f820116820180604052508101906104539190611990565b905060008111610498576040517f08c379a000000000000000000000000000000000000000000000000000000000815260040161048f90611a09565b60405180910390fd5b8173ffffffffffffffffffffffffffffffffffffffff1663a9059cbb600160009054906101000a900473ffffffffffffffffffffffffffffffffffffffff16836040518363ffffffff1660e01b81526004016104f5929190611a38565b6020604051808303816000875af1158015610514573d6000803e3d6000fd5b505050506040513d601f19601f820116820180604052508101906105389190611a99565b505050565b600160009054906101000a900473ffffffffffffffffffffffffffffffffffffffff1681565b73e592427a0aece92de3edee1f18e0157c0586156481565b73ba12222222228d8ba445958a75a0704d566bf2c873ffffffffffffffffffffffffffffffffffffffff163373ffffffffffffffffffffffffffffffffffffffff16146105fd576040517f08c379a00000000000000000000000000000000000000000000000000000000081526004016105f490611b12565b60405180910390fd5b60005b84518110156107625761066385828151811061061f5761061e6117b6565b5b602002602001015185838151811061063a576106396117b6565b5b6020026020010151858481518110610655576106546117b6565b5b60200260200101518561084a565b6000838281518110610678576106776117b6565b5b6020026020010151858381518110610693576106926117b6565b5b60200260200101516106a59190611b61565b90508582815181106106ba576106b96117b6565b5b602002602001015173ffffffffffffffffffffffffffffffffffffffff1663a9059cbb73ba12222222228d8ba445958a75a0704d566bf2c8836040518363ffffffff1660e01b8152600401610710929190611a38565b6020604051808303816000875af115801561072f573d6000803e3d6000fd5b505050506040513d601f19601f820116820180604052508101906107539190611a99565b50508080600101915050610600565b5050505050565b6000835167ffffffffffffffff81111561078657610785611302565b5b6040519080825280602002602001820160405280156107b45781602001602082028036833780820191505090505b50905060005b8451811015610838578481815181106107d6576107d56117b6565b5b60200260200101518282815181106107f1576107f06117b6565b5b602002602001019073ffffffffffffffffffffffffffffffffffffffff16908173ffffffffffffffffffffffffffffffffffffffff168152505080806001019150506107ba565b50610844818484610c8b565b50505050565b600080828060200190518101906108619190611d4e565b915091506108a46040518060400160405280601481526020017f466c617368206c6f616e2072656365697665643a00000000000000000000000081525086610d15565b6108e36040518060400160405280600f81526020017f426f72726f77656420546f6b656e3a000000000000000000000000000000000081525087610db1565b6109226040518060400160405280600d81526020017f54617267657420546f6b656e3a0000000000000000000000000000000000000081525083610db1565b6109418673e592427a0aece92de3edee1f18e0157c0586156487610e4d565b600080600090505b8251811015610b3657600080848381518110610968576109676117b6565b5b60200260200101518060200190518101906109839190611daa565b915091506109c66040518060400160405280601081526020017f466f72776172642073776170202325730000000000000000000000000000000081525084610d15565b610a056040518060400160405280600981526020017f416d6f756e74496e3a000000000000000000000000000000000000000000000081525083610d15565b610a0e81610fa2565b73e592427a0aece92de3edee1f18e0157c0586156473ffffffffffffffffffffffffffffffffffffffff1663c04b8d596040518060a001604052808481526020013073ffffffffffffffffffffffffffffffffffffffff16815260200142815260200185815260200160008152506040518263ffffffff1660e01b8152600401610a989190611ede565b6020604051808303816000875af1158015610ab7573d6000803e3d6000fd5b505050506040513d601f19601f82011682018060405250810190610adb9190611990565b84610ae69190611b61565b9350610b276040518060400160405280600a81526020017f416d6f756e744f75743a0000000000000000000000000000000000000000000081525085610d15565b50508080600101915050610949565b50610b766040518060400160405280601981526020017f46696e616c20616d6f756e742061667465722073776170733a0000000000000081525082610d15565b60008587610b849190611b61565b9050610bc56040518060400160405280601881526020017f546f74616c206465627420286c6f616e202b20666565293a000000000000000081525082610d15565b808873ffffffffffffffffffffffffffffffffffffffff166370a08231306040518263ffffffff1660e01b8152600401610bff919061125c565b602060405180830381865afa158015610c1c573d6000803e3d6000fd5b505050506040513d601f19601f82011682018060405250810190610c409190611990565b1015610c81576040517f08c379a0000000000000000000000000000000000000000000000000000000008152600401610c7890611f4c565b60405180910390fd5b5050505050505050565b73ba12222222228d8ba445958a75a0704d566bf2c873ffffffffffffffffffffffffffffffffffffffff16635c38449e308585856040518563ffffffff1660e01b8152600401610cde9493929190612156565b600060405180830381600087803b158015610cf857600080fd5b505af1158015610d0c573d6000803e3d6000fd5b50505050505050565b610dad8282604051602401610d2b9291906121f4565b6040516020818303038152906040527fb60e72cc000000000000000000000000000000000000000000000000000000007bffffffffffffffffffffffffffffffffffffffffffffffffffffffff19166020820180517bffffffffffffffffffffffffffffffffffffffffffffffffffffffff838183161783525050505061103b565b5050565b610e498282604051602401610dc7929190612224565b6040516020818303038152906040527f319af333000000000000000000000000000000000000000000000000000000007bffffffffffffffffffffffffffffffffffffffffffffffffffffffff19166020820180517bffffffffffffffffffffffffffffffffffffffffffffffffffffffff838183161783525050505061103b565b5050565b6000808473ffffffffffffffffffffffffffffffffffffffff1663095ea7b360e01b8585604051602401610e82929190611a38565b604051602081830303815290604052907bffffffffffffffffffffffffffffffffffffffffffffffffffffffff19166020820180517bffffffffffffffffffffffffffffffffffffffffffffffffffffffff8381831617835250505050604051610eec9190612290565b6000604051808303816000865af19150503d8060008114610f29576040519150601f19603f3d011682016040523d82523d6000602084013e610f2e565b606091505b5091509150818015610f5c5750600081511480610f5b575080806020019051810190610f5a9190611a99565b5b5b610f9b576040517f08c379a0000000000000000000000000000000000000000000000000000000008152600401610f92906122f3565b60405180910390fd5b5050505050565b61103881604051602401610fb69190612313565b6040516020818303038152906040527f0be77f56000000000000000000000000000000000000000000000000000000007bffffffffffffffffffffffffffffffffffffffffffffffffffffffff19166020820180517bffffffffffffffffffffffffffffffffffffffffffffffffffffffff838183161783525050505061103b565b50565b6110528161104a611055611076565b63ffffffff16565b50565b60006a636f6e736f6c652e6c6f679050600080835160208501845afa505050565b611081819050919050565b611089612335565b565b6000604051905090565b600080fd5b600080fd5b600080fd5b600080fd5b600080fd5b60008083601f8401126110c4576110c361109f565b5b8235905067ffffffffffffffff8111156110e1576110e06110a4565b5b6020830191508360208202830111156110fd576110fc6110a9565b5b9250929050565b600073ffffffffffffffffffffffffffffffffffffffff82169050919050565b600061112f82611104565b9050919050565b61113f81611124565b811461114a57600080fd5b50565b60008135905061115c81611136565b92915050565b6000819050919050565b61117581611162565b811461118057600080fd5b50565b6000813590506111928161116c565b92915050565b6000806000806000608086880312156111b4576111b3611095565b5b600086013567ffffffffffffffff8111156111d2576111d161109a565b5b6111de888289016110ae565b955095505060206111f18882890161114d565b93505060406112028882890161114d565b925050606061121388828901611183565b9150509295509295909350565b60006020828403121561123657611235611095565b5b60006112448482850161114d565b91505092915050565b61125681611124565b82525050565b6000602082019050611271600083018461124d565b92915050565b6000819050919050565b600061129c61129761129284611104565b611277565b611104565b9050919050565b60006112ae82611281565b9050919050565b60006112c0826112a3565b9050919050565b6112d0816112b5565b82525050565b60006020820190506112eb60008301846112c7565b92915050565b6000601f19601f8301169050919050565b7f4e487b7100000000000000000000000000000000000000000000000000000000600052604160045260246000fd5b61133a826112f1565b810181811067ffffffffffffffff8211171561135957611358611302565b5b80604052505050565b600061136c61108b565b90506113788282611331565b919050565b600067ffffffffffffffff82111561139857611397611302565b5b602082029050602081019050919050565b60006113b482611124565b9050919050565b6113c4816113a9565b81146113cf57600080fd5b50565b6000813590506113e1816113bb565b92915050565b60006113fa6113f58461137d565b611362565b9050808382526020820190506020840283018581111561141d5761141c6110a9565b5b835b81811015611446578061143288826113d2565b84526020840193505060208101905061141f565b5050509392505050565b600082601f8301126114655761146461109f565b5b81356114758482602086016113e7565b91505092915050565b600067ffffffffffffffff82111561149957611498611302565b5b602082029050602081019050919050565b60006114bd6114b88461147e565b611362565b905080838252602082019050602084028301858111156114e0576114df6110a9565b5b835b8181101561150957806114f58882611183565b8452602084019350506020810190506114e2565b5050509392505050565b600082601f8301126115285761152761109f565b5b81356115388482602086016114aa565b91505092915050565b600080fd5b600067ffffffffffffffff82111561156157611560611302565b5b61156a826112f1565b9050602081019050919050565b82818337600083830152505050565b600061159961159484611546565b611362565b9050828152602081018484840111156115b5576115b4611541565b5b6115c0848285611577565b509392505050565b600082601f8301126115dd576115dc61109f565b5b81356115ed848260208601611586565b91505092915050565b600080600080608085870312156116105761160f611095565b5b600085013567ffffffffffffffff81111561162e5761162d61109a565b5b61163a87828801611450565b945050602085013567ffffffffffffffff81111561165b5761165a61109a565b5b61166787828801611513565b935050604085013567ffffffffffffffff8111156116885761168761109a565b5b61169487828801611513565b925050606085013567ffffffffffffffff8111156116b5576116b461109a565b5b6116c1878288016115c8565b91505092959194509250565b600082825260208201905092915050565b7f4e6f74206f776e65720000000000000000000000000000000000000000000000600082015250565b60006117146009836116cd565b915061171f826116de565b602082019050919050565b6000602082019050818103600083015261174381611707565b9050919050565b7f416d6f756e74206d757374206265203e20300000000000000000000000000000600082015250565b60006117806012836116cd565b915061178b8261174a565b602082019050919050565b600060208201905081810360008301526117af81611773565b9050919050565b7f4e487b7100000000000000000000000000000000000000000000000000000000600052603260045260246000fd5b600082825260208201905092915050565b6000819050919050565b600082825260208201905092915050565b600061181d8385611800565b935061182a838584611577565b611833836112f1565b840190509392505050565b600061184b848484611811565b90509392505050565b600080fd5b600080fd5b600080fd5b600080833560016020038436030381126118805761187f61185e565b5b83810192508235915060208301925067ffffffffffffffff8211156118a8576118a7611854565b5b6001820236038313156118be576118bd611859565b5b509250929050565b6000602082019050919050565b60006118df83856117e5565b9350836020840285016118f1846117f6565b8060005b8781101561193757848403895261190c8284611863565b61191786828461183e565b9550611922846118c6565b935060208b019a5050506001810190506118f5565b50829750879450505050509392505050565b600060408201905061195e600083018661124d565b81810360208301526119718184866118d3565b9050949350505050565b60008151905061198a8161116c565b92915050565b6000602082840312156119a6576119a5611095565b5b60006119b48482850161197b565b91505092915050565b7f4e6f20746f6b656e2062616c616e636500000000000000000000000000000000600082015250565b60006119f36010836116cd565b91506119fe826119bd565b602082019050919050565b60006020820190508181036000830152611a22816119e6565b9050919050565b611a3281611162565b82525050565b6000604082019050611a4d600083018561124d565b611a5a6020830184611a29565b9392505050565b60008115159050919050565b611a7681611a61565b8114611a8157600080fd5b50565b600081519050611a9381611a6d565b92915050565b600060208284031215611aaf57611aae611095565b5b6000611abd84828501611a84565b91505092915050565b7f466c6173684c6f616e50726f76696465723a204e6f74207661756c7400000000600082015250565b6000611afc601c836116cd565b9150611b0782611ac6565b602082019050919050565b60006020820190508181036000830152611b2b81611aef565b9050919050565b7f4e487b7100000000000000000000000000000000000000000000000000000000600052601160045260246000fd5b6000611b6c82611162565b9150611b7783611162565b9250828201905080821115611b8f57611b8e611b32565b5b92915050565b6000611ba082611104565b9050919050565b611bb081611b95565b8114611bbb57600080fd5b50565b600081519050611bcd81611ba7565b92915050565b600067ffffffffffffffff821115611bee57611bed611302565b5b602082029050602081019050919050565b60005b83811015611c1d578082015181840152602081019050611c02565b60008484015250505050565b6000611c3c611c3784611546565b611362565b905082815260208101848484011115611c5857611c57611541565b5b611c63848285611bff565b509392505050565b600082601f830112611c8057611c7f61109f565b5b8151611c90848260208601611c29565b91505092915050565b6000611cac611ca784611bd3565b611362565b90508083825260208201905060208402830185811115611ccf57611cce6110a9565b5b835b81811015611d1657805167ffffffffffffffff811115611cf457611cf361109f565b5b808601611d018982611c6b565b85526020850194505050602081019050611cd1565b5050509392505050565b600082601f830112611d3557611d3461109f565b5b8151611d45848260208601611c99565b91505092915050565b60008060408385031215611d6557611d64611095565b5b6000611d7385828601611bbe565b925050602083015167ffffffffffffffff811115611d9457611d9361109a565b5b611da085828601611d20565b9150509250929050565b60008060408385031215611dc157611dc0611095565b5b6000611dcf8582860161197b565b925050602083015167ffffffffffffffff811115611df057611def61109a565b5b611dfc85828601611c6b565b9150509250929050565b600081519050919050565b6000611e1c82611e06565b611e268185611800565b9350611e36818560208601611bff565b611e3f816112f1565b840191505092915050565b611e5381611124565b82525050565b611e6281611162565b82525050565b600060a0830160008301518482036000860152611e858282611e11565b9150506020830151611e9a6020860182611e4a565b506040830151611ead6040860182611e59565b506060830151611ec06060860182611e59565b506080830151611ed36080860182611e59565b508091505092915050565b60006020820190508181036000830152611ef88184611e68565b905092915050565b7f4e6f7420656e6f75676820746f207265706179206c6f616e0000000000000000600082015250565b6000611f366018836116cd565b9150611f4182611f00565b602082019050919050565b60006020820190508181036000830152611f6581611f29565b9050919050565b6000611f77826112a3565b9050919050565b611f8781611f6c565b82525050565b600081519050919050565b600082825260208201905092915050565b6000819050602082019050919050565b6000611fc4826112a3565b9050919050565b611fd481611fb9565b82525050565b6000611fe68383611fcb565b60208301905092915050565b6000602082019050919050565b600061200a82611f8d565b6120148185611f98565b935061201f83611fa9565b8060005b838110156120505781516120378882611fda565b975061204283611ff2565b925050600181019050612023565b5085935050505092915050565b600081519050919050565b600082825260208201905092915050565b6000819050602082019050919050565b60006120958383611e59565b60208301905092915050565b6000602082019050919050565b60006120b98261205d565b6120c38185612068565b93506120ce83612079565b8060005b838110156120ff5781516120e68882612089565b97506120f1836120a1565b9250506001810190506120d2565b5085935050505092915050565b600082825260208201905092915050565b600061212882611e06565b612132818561210c565b9350612142818560208601611bff565b61214b816112f1565b840191505092915050565b600060808201905061216b6000830187611f7e565b818103602083015261217d8186611fff565b9050818103604083015261219181856120ae565b905081810360608301526121a5818461211d565b905095945050505050565b600081519050919050565b60006121c6826121b0565b6121d081856116cd565b93506121e0818560208601611bff565b6121e9816112f1565b840191505092915050565b6000604082019050818103600083015261220e81856121bb565b905061221d6020830184611a29565b9392505050565b6000604082019050818103600083015261223e81856121bb565b905061224d602083018461124d565b9392505050565b600081905092915050565b600061226a82611e06565b6122748185612254565b9350612284818560208601611bff565b80840191505092915050565b600061229c828461225f565b915081905092915050565b7f5341000000000000000000000000000000000000000000000000000000000000600082015250565b60006122dd6002836116cd565b91506122e8826122a7565b602082019050919050565b6000602082019050818103600083015261230c816122d0565b9050919050565b6000602082019050818103600083015261232d818461211d565b905092915050565b7f4e487b7100000000000000000000000000000000000000000000000000000000600052605160045260246000fdfea26469706673582212203a492c391bc7d5c1a16a573b770889dad01c215ba766d3ba743d5e3dda9aaaeb64736f6c634300081c0033","abi":[{"inputs":[{"internalType":"bytes[]","name":"forwardPaths","type":"bytes[]"},{"internalType":"address","name":"tokenIn","type":"address"},{"internalType":"address","name":"tokenOut","type":"address"},{"internalType":"uint256","name":"borrowAmount","type":"uint256"}],"name":"flashLoanAndSwap","outputs":[],"stateMutability":"nonpayable","type":"function"},{"inputs":[],"name":"owner","outputs":[{"internalType":"address","name":"","type":"address"}],"stateMutability":"view","type":"function"},{"inputs":[{"internalType":"contract IERC20[]","name":"tokens","type":"address[]"},{"internalType":"uint256[]","name":"amounts","type":"uint256[]"},{"internalType":"uint256[]","name":"feeAmounts","type":"uint256[]"},{"internalType":"bytes","name":"userData","type":"bytes"}],"name":"receiveFlashLoan","outputs":[],"stateMutability":"nonpayable","type":"function"},{"inputs":[],"name":"swapRouter","outputs":[{"internalType":"contract ISwapRouter","name":"","type":"address"}],"stateMutability":"view","type":"function"},{"inputs":[{"internalType":"address","name":"token","type":"address"}],"name":"withdrawToken","outputs":[],"stateMutability":"nonpayable","type":"function"},{"stateMutability":"payable","type":"receive"}]}