{
  "address": "0xDB0eAB2B35027C8ce2BD682f94668bd34f3F52d7",
  "abi": [
    {
      "inputs": [
        {
          "internalType": "bytes[]",
          "name": "forwardPaths",
          "type": "bytes[]"
        },
        {
          "internalType": "address",
          "name": "tokenIn",
          "type": "address"
        },
        {
          "internalType": "address",
          "name": "tokenOut",
          "type": "address"
        },
        {
          "internalType": "uint256",
          "name": "amountIn",
          "type": "uint256"
        }
      ],
      "name": "arbitrageDexes",
      "outputs": [],
      "stateMutability": "nonpayable",
      "type": "function"
    },
    {
      "inputs": [],
      "name": "owner",
      "outputs": [
        {
          "internalType": "address",
          "name": "",
          "type": "address"
        }
      ],
      "stateMutability": "view",
      "type": "function"
    },
    {
      "inputs": [
        {
          "internalType": "contract IERC20[]",
          "name": "tokens",
          "type": "address[]"
        },
        {
          "internalType": "uint256[]",
          "name": "amounts",
          "type": "uint256[]"
        },
        {
          "internalType": "uint256[]",
          "name": "feeAmounts",
          "type": "uint256[]"
        },
        {
          "internalType": "bytes",
          "name": "userData",
          "type": "bytes"
        }
      ],
      "name": "receiveFlashLoan",
      "outputs": [],
      "stateMutability": "nonpayable",
      "type": "function"
    },
    {
      "inputs": [
        {
          "internalType": "address",
          "name": "token",
          "type": "address"
        }
      ],
      "name": "withdrawToken",
      "outputs": [],
      "stateMutability": "nonpayable",
      "type": "function"
    },
    {
      "stateMutability": "payable",
      "type": "receive"
    }
  ],
  "transactionHash": "0xdee35cba042091ea9f0b1e2ab2a0995adb992ee301c592c1383404cfa7b09d92",
  "args": [],
  "numDeployments": 2,
  "solcInputHash": "484a871af76db63c60654cc7ed0cfaac",
  "bytecode": "0x6080604052348015600f57600080fd5b50336000806101000a81548173ffffffffffffffffffffffffffffffffffffffff021916908373ffffffffffffffffffffffffffffffffffffffff1602179055506125b48061005f6000396000f3fe6080604052600436106100435760003560e01c80635785319d1461004f57806389476069146100785780638da5cb5b146100a1578063f04f2707146100cc5761004a565b3661004a57005b600080fd5b34801561005b57600080fd5b506100766004803603810190610071919061127e565b6100f5565b005b34801561008457600080fd5b5061009f600480360381019061009a9190611306565b61030f565b005b3480156100ad57600080fd5b506100b6610501565b6040516100c39190611342565b60405180910390f35b3480156100d857600080fd5b506100f360048036038101906100ee9190611662565b610525565b005b60008054906101000a900473ffffffffffffffffffffffffffffffffffffffff1673ffffffffffffffffffffffffffffffffffffffff163373ffffffffffffffffffffffffffffffffffffffff1614610183576040517f08c379a000000000000000000000000000000000000000000000000000000000815260040161017a90611796565b60405180910390fd5b600081116101c6576040517f08c379a00000000000000000000000000000000000000000000000000000000081526004016101bd90611802565b60405180910390fd5b6000600167ffffffffffffffff8111156101e3576101e261136e565b5b6040519080825280602002602001820160405280156102115781602001602082028036833780820191505090505b509050838160008151811061022957610228611822565b5b602002602001019073ffffffffffffffffffffffffffffffffffffffff16908173ffffffffffffffffffffffffffffffffffffffff16815250506000600167ffffffffffffffff8111156102805761027f61136e565b5b6040519080825280602002602001820160405280156102ae5781602001602082028036833780820191505090505b50905082816000815181106102c6576102c5611822565b5b60200260200101818152505060008488886040516020016102e9939291906119b5565b6040516020818303038152906040529050610305838383610713565b5050505050505050565b60008054906101000a900473ffffffffffffffffffffffffffffffffffffffff1673ffffffffffffffffffffffffffffffffffffffff163373ffffffffffffffffffffffffffffffffffffffff161461039d576040517f08c379a000000000000000000000000000000000000000000000000000000000815260040161039490611796565b60405180910390fd5b60008173ffffffffffffffffffffffffffffffffffffffff166370a08231306040518263ffffffff1660e01b81526004016103d89190611342565b602060405180830381865afa1580156103f5573d6000803e3d6000fd5b505050506040513d601f19601f8201168201806040525081019061041991906119fc565b90506000811161045e576040517f08c379a000000000000000000000000000000000000000000000000000000000815260040161045590611a75565b60405180910390fd5b8173ffffffffffffffffffffffffffffffffffffffff1663a9059cbb60008054906101000a900473ffffffffffffffffffffffffffffffffffffffff16836040518363ffffffff1660e01b81526004016104b9929190611aa4565b6020604051808303816000875af11580156104d8573d6000803e3d6000fd5b505050506040513d601f19601f820116820180604052508101906104fc9190611b05565b505050565b60008054906101000a900473ffffffffffffffffffffffffffffffffffffffff1681565b73ba12222222228d8ba445958a75a0704d566bf2c873ffffffffffffffffffffffffffffffffffffffff163373ffffffffffffffffffffffffffffffffffffffff16146105a7576040517f08c379a000000000000000000000000000000000000000000000000000000000815260040161059e90611b7e565b60405180910390fd5b60005b845181101561070c5761060d8582815181106105c9576105c8611822565b5b60200260200101518583815181106105e4576105e3611822565b5b60200260200101518584815181106105ff576105fe611822565b5b6020026020010151856107f4565b600083828151811061062257610621611822565b5b602002602001015185838151811061063d5761063c611822565b5b602002602001015161064f9190611bcd565b905085828151811061066457610663611822565b5b602002602001015173ffffffffffffffffffffffffffffffffffffffff1663a9059cbb73ba12222222228d8ba445958a75a0704d566bf2c8836040518363ffffffff1660e01b81526004016106ba929190611aa4565b6020604051808303816000875af11580156106d9573d6000803e3d6000fd5b505050506040513d601f19601f820116820180604052508101906106fd9190611b05565b505080806001019150506105aa565b5050505050565b6000835167ffffffffffffffff8111156107305761072f61136e565b5b60405190808252806020026020018201604052801561075e5781602001602082028036833780820191505090505b50905060005b84518110156107e2578481815181106107805761077f611822565b5b602002602001015182828151811061079b5761079a611822565b5b602002602001019073ffffffffffffffffffffffffffffffffffffffff16908173ffffffffffffffffffffffffffffffffffffffff16815250508080600101915050610764565b506107ee818484610a02565b50505050565b6000808280602001905181019061080b9190611dba565b9150915061083160405180606001604052806025815260200161255a6025913986610a8c565b6108706040518060400160405280600e81526020017f626f72726f776564546f6b656e3a00000000000000000000000000000000000081525087610b28565b6108af6040518060400160405280600981526020017f546f6b656e4f75743a000000000000000000000000000000000000000000000081525083610b28565b6108ee6040518060400160405280600481526020017f4665653a0000000000000000000000000000000000000000000000000000000081525085610a8c565b60006108fa8288610bc4565b905061093b6040518060400160405280600b81526020017f616d6f756e744f7574303a00000000000000000000000000000000000000000081525082610a8c565b6000610948848984610ddf565b90506109896040518060400160405280600b81526020017f616d6f756e744f7574313a00000000000000000000000000000000000000000081525082610a8c565b8681116109cb576040517f08c379a00000000000000000000000000000000000000000000000000000000081526004016109c290611e62565b60405180910390fd5b6109f86040518060600160405280602c815260200161252e602c913988836109f39190611e82565b610a8c565b5050505050505050565b73ba12222222228d8ba445958a75a0704d566bf2c873ffffffffffffffffffffffffffffffffffffffff16635c38449e308585856040518563ffffffff1660e01b8152600401610a5594939291906120f8565b600060405180830381600087803b158015610a6f57600080fd5b505af1158015610a83573d6000803e3d6000fd5b50505050505050565b610b248282604051602401610aa2929190612196565b6040516020818303038152906040527fb60e72cc000000000000000000000000000000000000000000000000000000007bffffffffffffffffffffffffffffffffffffffffffffffffffffffff19166020820180517bffffffffffffffffffffffffffffffffffffffffffffffffffffffff8381831617835250505050610f33565b5050565b610bc08282604051602401610b3e9291906121c6565b6040516020818303038152906040527f319af333000000000000000000000000000000000000000000000000000000007bffffffffffffffffffffffffffffffffffffffffffffffffffffffff19166020820180517bffffffffffffffffffffffffffffffffffffffffffffffffffffffff8381831617835250505050610f33565b5050565b600080600090505b8351811015610dd857600080858381518110610beb57610bea611822565b5b6020026020010151806020019051810190610c0691906121f6565b91509150610c496040518060400160405280601081526020017f466f72776172642073776170202325730000000000000000000000000000000081525084610a8c565b610c886040518060400160405280600981526020017f416d6f756e74496e3a000000000000000000000000000000000000000000000081525083610a8c565b610c9181610f4d565b610cb08573e592427a0aece92de3edee1f18e0157c0586156484610fe6565b73e592427a0aece92de3edee1f18e0157c0586156473ffffffffffffffffffffffffffffffffffffffff1663c04b8d596040518060a001604052808481526020013073ffffffffffffffffffffffffffffffffffffffff16815260200142815260200185815260200160008152506040518263ffffffff1660e01b8152600401610d3a9190612310565b6020604051808303816000875af1158015610d59573d6000803e3d6000fd5b505050506040513d601f19601f82011682018060405250810190610d7d91906119fc565b84610d889190611bcd565b9350610dc96040518060400160405280600a81526020017f416d6f756e744f75743a0000000000000000000000000000000000000000000081525085610a8c565b50508080600101915050610bcc565b5092915050565b6000610e0084731b81d678ffb9c0263b24a97847620c99d213eb1484610fe6565b731b81d678ffb9c0263b24a97847620c99d213eb1473ffffffffffffffffffffffffffffffffffffffff1663414bf3896040518061010001604052808773ffffffffffffffffffffffffffffffffffffffff1681526020018673ffffffffffffffffffffffffffffffffffffffff1681526020016101f462ffffff1681526020013073ffffffffffffffffffffffffffffffffffffffff16815260200142815260200185815260200160008152602001600073ffffffffffffffffffffffffffffffffffffffff168152506040518263ffffffff1660e01b8152600401610ee79190612401565b6020604051808303816000875af1158015610f06573d6000803e3d6000fd5b505050506040513d601f19601f82011682018060405250810190610f2a91906119fc565b90509392505050565b610f4a81610f4261113b61115c565b63ffffffff16565b50565b610fe381604051602401610f61919061241d565b6040516020818303038152906040527f0be77f56000000000000000000000000000000000000000000000000000000007bffffffffffffffffffffffffffffffffffffffffffffffffffffffff19166020820180517bffffffffffffffffffffffffffffffffffffffffffffffffffffffff8381831617835250505050610f33565b50565b6000808473ffffffffffffffffffffffffffffffffffffffff1663095ea7b360e01b858560405160240161101b929190611aa4565b604051602081830303815290604052907bffffffffffffffffffffffffffffffffffffffffffffffffffffffff19166020820180517bffffffffffffffffffffffffffffffffffffffffffffffffffffffff8381831617835250505050604051611085919061247b565b6000604051808303816000865af19150503d80600081146110c2576040519150601f19603f3d011682016040523d82523d6000602084013e6110c7565b606091505b50915091508180156110f557506000815114806110f45750808060200190518101906110f39190611b05565b5b5b611134576040517f08c379a000000000000000000000000000000000000000000000000000000000815260040161112b906124de565b60405180910390fd5b5050505050565b60006a636f6e736f6c652e6c6f679050600080835160208501845afa505050565b611167819050919050565b61116f6124fe565b565b6000604051905090565b600080fd5b600080fd5b600080fd5b600080fd5b600080fd5b60008083601f8401126111aa576111a9611185565b5b8235905067ffffffffffffffff8111156111c7576111c661118a565b5b6020830191508360208202830111156111e3576111e261118f565b5b9250929050565b600073ffffffffffffffffffffffffffffffffffffffff82169050919050565b6000611215826111ea565b9050919050565b6112258161120a565b811461123057600080fd5b50565b6000813590506112428161121c565b92915050565b6000819050919050565b61125b81611248565b811461126657600080fd5b50565b60008135905061127881611252565b92915050565b60008060008060006080868803121561129a5761129961117b565b5b600086013567ffffffffffffffff8111156112b8576112b7611180565b5b6112c488828901611194565b955095505060206112d788828901611233565b93505060406112e888828901611233565b92505060606112f988828901611269565b9150509295509295909350565b60006020828403121561131c5761131b61117b565b5b600061132a84828501611233565b91505092915050565b61133c8161120a565b82525050565b60006020820190506113576000830184611333565b92915050565b6000601f19601f8301169050919050565b7f4e487b7100000000000000000000000000000000000000000000000000000000600052604160045260246000fd5b6113a68261135d565b810181811067ffffffffffffffff821117156113c5576113c461136e565b5b80604052505050565b60006113d8611171565b90506113e4828261139d565b919050565b600067ffffffffffffffff8211156114045761140361136e565b5b602082029050602081019050919050565b60006114208261120a565b9050919050565b61143081611415565b811461143b57600080fd5b50565b60008135905061144d81611427565b92915050565b6000611466611461846113e9565b6113ce565b905080838252602082019050602084028301858111156114895761148861118f565b5b835b818110156114b2578061149e888261143e565b84526020840193505060208101905061148b565b5050509392505050565b600082601f8301126114d1576114d0611185565b5b81356114e1848260208601611453565b91505092915050565b600067ffffffffffffffff8211156115055761150461136e565b5b602082029050602081019050919050565b6000611529611524846114ea565b6113ce565b9050808382526020820190506020840283018581111561154c5761154b61118f565b5b835b8181101561157557806115618882611269565b84526020840193505060208101905061154e565b5050509392505050565b600082601f83011261159457611593611185565b5b81356115a4848260208601611516565b91505092915050565b600080fd5b600067ffffffffffffffff8211156115cd576115cc61136e565b5b6115d68261135d565b9050602081019050919050565b82818337600083830152505050565b6000611605611600846115b2565b6113ce565b905082815260208101848484011115611621576116206115ad565b5b61162c8482856115e3565b509392505050565b600082601f83011261164957611648611185565b5b81356116598482602086016115f2565b91505092915050565b6000806000806080858703121561167c5761167b61117b565b5b600085013567ffffffffffffffff81111561169a57611699611180565b5b6116a6878288016114bc565b945050602085013567ffffffffffffffff8111156116c7576116c6611180565b5b6116d38782880161157f565b935050604085013567ffffffffffffffff8111156116f4576116f3611180565b5b6117008782880161157f565b925050606085013567ffffffffffffffff81111561172157611720611180565b5b61172d87828801611634565b91505092959194509250565b600082825260208201905092915050565b7f4e6f74206f776e65720000000000000000000000000000000000000000000000600082015250565b6000611780600983611739565b915061178b8261174a565b602082019050919050565b600060208201905081810360008301526117af81611773565b9050919050565b7f416d6f756e74206d7573742062652067726561746572207468616e2030000000600082015250565b60006117ec601d83611739565b91506117f7826117b6565b602082019050919050565b6000602082019050818103600083015261181b816117df565b9050919050565b7f4e487b7100000000000000000000000000000000000000000000000000000000600052603260045260246000fd5b600082825260208201905092915050565b6000819050919050565b600082825260208201905092915050565b6000611889838561186c565b93506118968385846115e3565b61189f8361135d565b840190509392505050565b60006118b784848461187d565b90509392505050565b600080fd5b600080fd5b600080fd5b600080833560016020038436030381126118ec576118eb6118ca565b5b83810192508235915060208301925067ffffffffffffffff821115611914576119136118c0565b5b60018202360383131561192a576119296118c5565b5b509250929050565b6000602082019050919050565b600061194b8385611851565b93508360208402850161195d84611862565b8060005b878110156119a357848403895261197882846118cf565b6119838682846118aa565b955061198e84611932565b935060208b019a505050600181019050611961565b50829750879450505050509392505050565b60006040820190506119ca6000830186611333565b81810360208301526119dd81848661193f565b9050949350505050565b6000815190506119f681611252565b92915050565b600060208284031215611a1257611a1161117b565b5b6000611a20848285016119e7565b91505092915050565b7f4e6f20746f6b656e2062616c616e636500000000000000000000000000000000600082015250565b6000611a5f601083611739565b9150611a6a82611a29565b602082019050919050565b60006020820190508181036000830152611a8e81611a52565b9050919050565b611a9e81611248565b82525050565b6000604082019050611ab96000830185611333565b611ac66020830184611a95565b9392505050565b60008115159050919050565b611ae281611acd565b8114611aed57600080fd5b50565b600081519050611aff81611ad9565b92915050565b600060208284031215611b1b57611b1a61117b565b5b6000611b2984828501611af0565b91505092915050565b7f466c6173684c6f616e50726f76696465723a204e6f74207661756c7400000000600082015250565b6000611b68601c83611739565b9150611b7382611b32565b602082019050919050565b60006020820190508181036000830152611b9781611b5b565b9050919050565b7f4e487b7100000000000000000000000000000000000000000000000000000000600052601160045260246000fd5b6000611bd882611248565b9150611be383611248565b9250828201905080821115611bfb57611bfa611b9e565b5b92915050565b6000611c0c826111ea565b9050919050565b611c1c81611c01565b8114611c2757600080fd5b50565b600081519050611c3981611c13565b92915050565b600067ffffffffffffffff821115611c5a57611c5961136e565b5b602082029050602081019050919050565b60005b83811015611c89578082015181840152602081019050611c6e565b60008484015250505050565b6000611ca8611ca3846115b2565b6113ce565b905082815260208101848484011115611cc457611cc36115ad565b5b611ccf848285611c6b565b509392505050565b600082601f830112611cec57611ceb611185565b5b8151611cfc848260208601611c95565b91505092915050565b6000611d18611d1384611c3f565b6113ce565b90508083825260208201905060208402830185811115611d3b57611d3a61118f565b5b835b81811015611d8257805167ffffffffffffffff811115611d6057611d5f611185565b5b808601611d6d8982611cd7565b85526020850194505050602081019050611d3d565b5050509392505050565b600082601f830112611da157611da0611185565b5b8151611db1848260208601611d05565b91505092915050565b60008060408385031215611dd157611dd061117b565b5b6000611ddf85828601611c2a565b925050602083015167ffffffffffffffff811115611e0057611dff611180565b5b611e0c85828601611d8c565b9150509250929050565b7f417262697472616765206e6f742070726f66697461626c650000000000000000600082015250565b6000611e4c601883611739565b9150611e5782611e16565b602082019050919050565b60006020820190508181036000830152611e7b81611e3f565b9050919050565b6000611e8d82611248565b9150611e9883611248565b9250828203905081811115611eb057611eaf611b9e565b5b92915050565b6000819050919050565b6000611edb611ed6611ed1846111ea565b611eb6565b6111ea565b9050919050565b6000611eed82611ec0565b9050919050565b6000611eff82611ee2565b9050919050565b611f0f81611ef4565b82525050565b600081519050919050565b600082825260208201905092915050565b6000819050602082019050919050565b6000611f4c82611ee2565b9050919050565b611f5c81611f41565b82525050565b6000611f6e8383611f53565b60208301905092915050565b6000602082019050919050565b6000611f9282611f15565b611f9c8185611f20565b9350611fa783611f31565b8060005b83811015611fd8578151611fbf8882611f62565b9750611fca83611f7a565b925050600181019050611fab565b5085935050505092915050565b600081519050919050565b600082825260208201905092915050565b6000819050602082019050919050565b61201a81611248565b82525050565b600061202c8383612011565b60208301905092915050565b6000602082019050919050565b600061205082611fe5565b61205a8185611ff0565b935061206583612001565b8060005b8381101561209657815161207d8882612020565b975061208883612038565b925050600181019050612069565b5085935050505092915050565b600081519050919050565b600082825260208201905092915050565b60006120ca826120a3565b6120d481856120ae565b93506120e4818560208601611c6b565b6120ed8161135d565b840191505092915050565b600060808201905061210d6000830187611f06565b818103602083015261211f8186611f87565b905081810360408301526121338185612045565b9050818103606083015261214781846120bf565b905095945050505050565b600081519050919050565b600061216882612152565b6121728185611739565b9350612182818560208601611c6b565b61218b8161135d565b840191505092915050565b600060408201905081810360008301526121b0818561215d565b90506121bf6020830184611a95565b9392505050565b600060408201905081810360008301526121e0818561215d565b90506121ef6020830184611333565b9392505050565b6000806040838503121561220d5761220c61117b565b5b600061221b858286016119e7565b925050602083015167ffffffffffffffff81111561223c5761223b611180565b5b61224885828601611cd7565b9150509250929050565b600061225d826120a3565b612267818561186c565b9350612277818560208601611c6b565b6122808161135d565b840191505092915050565b6122948161120a565b82525050565b600060a08301600083015184820360008601526122b78282612252565b91505060208301516122cc602086018261228b565b5060408301516122df6040860182612011565b5060608301516122f26060860182612011565b5060808301516123056080860182612011565b508091505092915050565b6000602082019050818103600083015261232a818461229a565b905092915050565b600062ffffff82169050919050565b61234a81612332565b82525050565b612359816111ea565b82525050565b61010082016000820151612376600085018261228b565b506020820151612389602085018261228b565b50604082015161239c6040850182612341565b5060608201516123af606085018261228b565b5060808201516123c26080850182612011565b5060a08201516123d560a0850182612011565b5060c08201516123e860c0850182612011565b5060e08201516123fb60e0850182612350565b50505050565b600061010082019050612417600083018461235f565b92915050565b6000602082019050818103600083015261243781846120bf565b905092915050565b600081905092915050565b6000612455826120a3565b61245f818561243f565b935061246f818560208601611c6b565b80840191505092915050565b6000612487828461244a565b915081905092915050565b7f5341000000000000000000000000000000000000000000000000000000000000600082015250565b60006124c8600283611739565b91506124d382612492565b602082019050919050565b600060208201905081810360008301526124f7816124bb565b9050919050565b7f4e487b7100000000000000000000000000000000000000000000000000000000600052605160045260246000fdfe417262697472616765205375636365737366756c3a2050726f6669742066726f6d206172626974726167653a457865637574696e67206f7065726174696f6e2077697468206c6f616e20616d6f756e743aa26469706673582212205ace689180bbf36b6bf0be8276766b946307c4506c9464b8feb37d112eccdc8364736f6c634300081c0033",
  "devdoc": {
    "kind": "dev",
    "methods": {
      "receiveFlashLoan(address[],uint256[],uint256[],bytes)": {
        "details": "When `flashLoan` is called on the Vault, it invokes the `receiveFlashLoan` hook on the recipient. At the time of the call, the Vault will have transferred `amounts` for `tokens` to the recipient. Before this call returns, the recipient must have transferred `amounts` plus `feeAmounts` for each token back to the Vault, or else the entire flash loan will revert. `userData` is the same value passed in the `IVault.flashLoan` call."
      }
    },
    "version": 1
  },
  "userdoc": {
    "kind": "user",
    "methods": {},
    "version": 1
  },
  "storageLayout": {
    "storage": [
      {
        "astId": 1139,
        "contract": "contracts/arbitrum/ArbitrageV2.sol:ArbitrageV2",
        "label": "owner",
        "offset": 0,
        "slot": "0",
        "type": "t_address"
      }
    ],
    "types": {
      "t_address": {
        "encoding": "inplace",
        "label": "address",
        "numberOfBytes": "20"
      }
    }
  }
}