{
  "address": "0x161Ebd31B732A79aD8926849ED0cCE91A01ef8A2",
  "abi": [
    {
      "anonymous": false,
      "inputs": [
        {
          "indexed": true,
          "internalType": "address",
          "name": "tokenIn",
          "type": "address"
        },
        {
          "indexed": true,
          "internalType": "address",
          "name": "tokenOut",
          "type": "address"
        },
        {
          "indexed": false,
          "internalType": "uint256",
          "name": "amountBorrowed",
          "type": "uint256"
        },
        {
          "indexed": false,
          "internalType": "uint256",
          "name": "profit",
          "type": "uint256"
        }
      ],
      "name": "ArbitrageCompleted",
      "type": "event"
    },
    {
      "anonymous": false,
      "inputs": [
        {
          "indexed": true,
          "internalType": "address",
          "name": "tokenIn",
          "type": "address"
        },
        {
          "indexed": true,
          "internalType": "address",
          "name": "tokenOut",
          "type": "address"
        },
        {
          "indexed": false,
          "internalType": "uint256",
          "name": "amountBorrowed",
          "type": "uint256"
        }
      ],
      "name": "ArbitrageStarted",
      "type": "event"
    },
    {
      "inputs": [
        {
          "internalType": "bytes[]",
          "name": "forwardPaths",
          "type": "bytes[]"
        },
        {
          "internalType": "address",
          "name": "tokenIn",
          "type": "address"
        },
        {
          "internalType": "address",
          "name": "tokenOut",
          "type": "address"
        },
        {
          "internalType": "uint256",
          "name": "borrowAmount",
          "type": "uint256"
        }
      ],
      "name": "arbitrageDexes",
      "outputs": [],
      "stateMutability": "nonpayable",
      "type": "function"
    },
    {
      "inputs": [],
      "name": "owner",
      "outputs": [
        {
          "internalType": "address",
          "name": "",
          "type": "address"
        }
      ],
      "stateMutability": "view",
      "type": "function"
    },
    {
      "inputs": [
        {
          "internalType": "contract IERC20[]",
          "name": "tokens",
          "type": "address[]"
        },
        {
          "internalType": "uint256[]",
          "name": "amounts",
          "type": "uint256[]"
        },
        {
          "internalType": "uint256[]",
          "name": "feeAmounts",
          "type": "uint256[]"
        },
        {
          "internalType": "bytes",
          "name": "userData",
          "type": "bytes"
        }
      ],
      "name": "receiveFlashLoan",
      "outputs": [],
      "stateMutability": "nonpayable",
      "type": "function"
    },
    {
      "inputs": [
        {
          "internalType": "address",
          "name": "token",
          "type": "address"
        }
      ],
      "name": "withdrawToken",
      "outputs": [],
      "stateMutability": "nonpayable",
      "type": "function"
    },
    {
      "stateMutability": "payable",
      "type": "receive"
    }
  ],
  "transactionHash": "0xe8322d2f7e41e706affb1ad230644c8509cec554c6e96e8439a4191620190580",
  "args": [],
  "numDeployments": 3,
  "solcInputHash": "9cd05d547addc2cb9a3aebd22eb27009",
  "bytecode": "0x6080604052348015600f57600080fd5b50600160008190555033600160006101000a81548173ffffffffffffffffffffffffffffffffffffffff021916908373ffffffffffffffffffffffffffffffffffffffff160217905550612441806100686000396000f3fe6080604052600436106100435760003560e01c80635785319d1461004f57806389476069146100785780638da5cb5b146100a1578063f04f2707146100cc5761004a565b3661004a57005b600080fd5b34801561005b57600080fd5b5061007660048036038101906100719190611135565b6100f5565b005b34801561008457600080fd5b5061009f600480360381019061009a91906111bd565b610376565b005b3480156100ad57600080fd5b506100b661056c565b6040516100c391906111f9565b60405180910390f35b3480156100d857600080fd5b506100f360048036038101906100ee9190611519565b610592565b005b600160009054906101000a900473ffffffffffffffffffffffffffffffffffffffff1673ffffffffffffffffffffffffffffffffffffffff163373ffffffffffffffffffffffffffffffffffffffff1614610185576040517f08c379a000000000000000000000000000000000000000000000000000000000815260040161017c9061164d565b60405180910390fd5b600081116101c8576040517f08c379a00000000000000000000000000000000000000000000000000000000081526004016101bf906116b9565b60405180910390fd5b8173ffffffffffffffffffffffffffffffffffffffff168373ffffffffffffffffffffffffffffffffffffffff167f19d7ac84096fd884c7ff689fa448c14cc2b828df6c74eff60c4173de059fea468360405161022591906116e8565b60405180910390a36000600167ffffffffffffffff81111561024a57610249611225565b5b6040519080825280602002602001820160405280156102785781602001602082028036833780820191505090505b50905083816000815181106102905761028f611703565b5b602002602001019073ffffffffffffffffffffffffffffffffffffffff16908173ffffffffffffffffffffffffffffffffffffffff16815250506000600167ffffffffffffffff8111156102e7576102e6611225565b5b6040519080825280602002602001820160405280156103155781602001602082028036833780820191505090505b509050828160008151811061032d5761032c611703565b5b602002602001018181525050600084888860405160200161035093929190611896565b604051602081830303815290604052905061036c838383610780565b5050505050505050565b600160009054906101000a900473ffffffffffffffffffffffffffffffffffffffff1673ffffffffffffffffffffffffffffffffffffffff163373ffffffffffffffffffffffffffffffffffffffff1614610406576040517f08c379a00000000000000000000000000000000000000000000000000000000081526004016103fd9061164d565b60405180910390fd5b60008173ffffffffffffffffffffffffffffffffffffffff166370a08231306040518263ffffffff1660e01b815260040161044191906111f9565b602060405180830381865afa15801561045e573d6000803e3d6000fd5b505050506040513d601f19601f8201168201806040525081019061048291906118dd565b9050600081116104c7576040517f08c379a00000000000000000000000000000000000000000000000000000000081526004016104be90611956565b60405180910390fd5b8173ffffffffffffffffffffffffffffffffffffffff1663a9059cbb600160009054906101000a900473ffffffffffffffffffffffffffffffffffffffff16836040518363ffffffff1660e01b8152600401610524929190611976565b6020604051808303816000875af1158015610543573d6000803e3d6000fd5b505050506040513d601f19601f8201168201806040525081019061056791906119d7565b505050565b600160009054906101000a900473ffffffffffffffffffffffffffffffffffffffff1681565b73ba12222222228d8ba445958a75a0704d566bf2c873ffffffffffffffffffffffffffffffffffffffff163373ffffffffffffffffffffffffffffffffffffffff1614610614576040517f08c379a000000000000000000000000000000000000000000000000000000000815260040161060b90611a50565b60405180910390fd5b60005b84518110156107795761067a85828151811061063657610635611703565b5b602002602001015185838151811061065157610650611703565b5b602002602001015185848151811061066c5761066b611703565b5b602002602001015185610861565b600083828151811061068f5761068e611703565b5b60200260200101518583815181106106aa576106a9611703565b5b60200260200101516106bc9190611a9f565b90508582815181106106d1576106d0611703565b5b602002602001015173ffffffffffffffffffffffffffffffffffffffff1663a9059cbb73ba12222222228d8ba445958a75a0704d566bf2c8836040518363ffffffff1660e01b8152600401610727929190611976565b6020604051808303816000875af1158015610746573d6000803e3d6000fd5b505050506040513d601f19601f8201168201806040525081019061076a91906119d7565b50508080600101915050610617565b5050505050565b6000835167ffffffffffffffff81111561079d5761079c611225565b5b6040519080825280602002602001820160405280156107cb5781602001602082028036833780820191505090505b50905060005b845181101561084f578481815181106107ed576107ec611703565b5b602002602001015182828151811061080857610807611703565b5b602002602001019073ffffffffffffffffffffffffffffffffffffffff16908173ffffffffffffffffffffffffffffffffffffffff168152505080806001019150506107d1565b5061085b81848461099a565b50505050565b610869610a24565b600080828060200190518101906108809190611c8c565b9150915060006108908288610a73565b9050600061089f848984610bf4565b90508681116108e3576040517f08c379a00000000000000000000000000000000000000000000000000000000081526004016108da90611d34565b60405180910390fd5b600087826108f19190611d54565b905061092089600160009054906101000a900473ffffffffffffffffffffffffffffffffffffffff1683610d74565b8473ffffffffffffffffffffffffffffffffffffffff168973ffffffffffffffffffffffffffffffffffffffff167f904ae207ac2ad187558223683996c4334fd731418301729349e3cbbad5cb9f588a8460405161097f929190611d88565b60405180910390a35050505050610994610ec9565b50505050565b73ba12222222228d8ba445958a75a0704d566bf2c873ffffffffffffffffffffffffffffffffffffffff16635c38449e308585856040518563ffffffff1660e01b81526004016109ed9493929190611ff3565b600060405180830381600087803b158015610a0757600080fd5b505af1158015610a1b573d6000803e3d6000fd5b50505050505050565b600260005403610a69576040517f08c379a0000000000000000000000000000000000000000000000000000000008152600401610a6090612099565b60405180910390fd5b6002600081905550565b600080600090505b8351811015610bed57600080858381518110610a9a57610a99611703565b5b6020026020010151806020019051810190610ab591906120b9565b91509150610ad98573e592427a0aece92de3edee1f18e0157c058615646000610ed3565b610af88573e592427a0aece92de3edee1f18e0157c0586156484610ed3565b73e592427a0aece92de3edee1f18e0157c0586156473ffffffffffffffffffffffffffffffffffffffff1663c04b8d596040518060a001604052808481526020013073ffffffffffffffffffffffffffffffffffffffff168152602001603c42610b629190611a9f565b815260200185815260200160008152506040518263ffffffff1660e01b8152600401610b8e91906121d3565b6020604051808303816000875af1158015610bad573d6000803e3d6000fd5b505050506040513d601f19601f82011682018060405250810190610bd191906118dd565b84610bdc9190611a9f565b935082806001019350505050610a7b565b5092915050565b6000610c1684731b81d678ffb9c0263b24a97847620c99d213eb146000610ed3565b610c3584731b81d678ffb9c0263b24a97847620c99d213eb1484610ed3565b731b81d678ffb9c0263b24a97847620c99d213eb1473ffffffffffffffffffffffffffffffffffffffff1663414bf3896040518061010001604052808773ffffffffffffffffffffffffffffffffffffffff1681526020018673ffffffffffffffffffffffffffffffffffffffff1681526020016101f462ffffff1681526020013073ffffffffffffffffffffffffffffffffffffffff168152602001603c42610cdf9190611a9f565b815260200185815260200160008152602001600073ffffffffffffffffffffffffffffffffffffffff168152506040518263ffffffff1660e01b8152600401610d2891906122c4565b6020604051808303816000875af1158015610d47573d6000803e3d6000fd5b505050506040513d601f19601f82011682018060405250810190610d6b91906118dd565b90509392505050565b6000808473ffffffffffffffffffffffffffffffffffffffff1663a9059cbb60e01b8585604051602401610da9929190611976565b604051602081830303815290604052907bffffffffffffffffffffffffffffffffffffffffffffffffffffffff19166020820180517bffffffffffffffffffffffffffffffffffffffffffffffffffffffff8381831617835250505050604051610e13919061231c565b6000604051808303816000865af19150503d8060008114610e50576040519150601f19603f3d011682016040523d82523d6000602084013e610e55565b606091505b5091509150818015610e835750600081511480610e82575080806020019051810190610e8191906119d7565b5b5b610ec2576040517f08c379a0000000000000000000000000000000000000000000000000000000008152600401610eb99061237f565b60405180910390fd5b5050505050565b6001600081905550565b6000808473ffffffffffffffffffffffffffffffffffffffff1663095ea7b360e01b8585604051602401610f08929190611976565b604051602081830303815290604052907bffffffffffffffffffffffffffffffffffffffffffffffffffffffff19166020820180517bffffffffffffffffffffffffffffffffffffffffffffffffffffffff8381831617835250505050604051610f72919061231c565b6000604051808303816000865af19150503d8060008114610faf576040519150601f19603f3d011682016040523d82523d6000602084013e610fb4565b606091505b5091509150818015610fe25750600081511480610fe1575080806020019051810190610fe091906119d7565b5b5b611021576040517f08c379a0000000000000000000000000000000000000000000000000000000008152600401611018906123eb565b60405180910390fd5b5050505050565b6000604051905090565b600080fd5b600080fd5b600080fd5b600080fd5b600080fd5b60008083601f8401126110615761106061103c565b5b8235905067ffffffffffffffff81111561107e5761107d611041565b5b60208301915083602082028301111561109a57611099611046565b5b9250929050565b600073ffffffffffffffffffffffffffffffffffffffff82169050919050565b60006110cc826110a1565b9050919050565b6110dc816110c1565b81146110e757600080fd5b50565b6000813590506110f9816110d3565b92915050565b6000819050919050565b611112816110ff565b811461111d57600080fd5b50565b60008135905061112f81611109565b92915050565b60008060008060006080868803121561115157611150611032565b5b600086013567ffffffffffffffff81111561116f5761116e611037565b5b61117b8882890161104b565b9550955050602061118e888289016110ea565b935050604061119f888289016110ea565b92505060606111b088828901611120565b9150509295509295909350565b6000602082840312156111d3576111d2611032565b5b60006111e1848285016110ea565b91505092915050565b6111f3816110c1565b82525050565b600060208201905061120e60008301846111ea565b92915050565b6000601f19601f8301169050919050565b7f4e487b7100000000000000000000000000000000000000000000000000000000600052604160045260246000fd5b61125d82611214565b810181811067ffffffffffffffff8211171561127c5761127b611225565b5b80604052505050565b600061128f611028565b905061129b8282611254565b919050565b600067ffffffffffffffff8211156112bb576112ba611225565b5b602082029050602081019050919050565b60006112d7826110c1565b9050919050565b6112e7816112cc565b81146112f257600080fd5b50565b600081359050611304816112de565b92915050565b600061131d611318846112a0565b611285565b905080838252602082019050602084028301858111156113405761133f611046565b5b835b81811015611369578061135588826112f5565b845260208401935050602081019050611342565b5050509392505050565b600082601f8301126113885761138761103c565b5b813561139884826020860161130a565b91505092915050565b600067ffffffffffffffff8211156113bc576113bb611225565b5b602082029050602081019050919050565b60006113e06113db846113a1565b611285565b9050808382526020820190506020840283018581111561140357611402611046565b5b835b8181101561142c57806114188882611120565b845260208401935050602081019050611405565b5050509392505050565b600082601f83011261144b5761144a61103c565b5b813561145b8482602086016113cd565b91505092915050565b600080fd5b600067ffffffffffffffff82111561148457611483611225565b5b61148d82611214565b9050602081019050919050565b82818337600083830152505050565b60006114bc6114b784611469565b611285565b9050828152602081018484840111156114d8576114d7611464565b5b6114e384828561149a565b509392505050565b600082601f830112611500576114ff61103c565b5b81356115108482602086016114a9565b91505092915050565b6000806000806080858703121561153357611532611032565b5b600085013567ffffffffffffffff81111561155157611550611037565b5b61155d87828801611373565b945050602085013567ffffffffffffffff81111561157e5761157d611037565b5b61158a87828801611436565b935050604085013567ffffffffffffffff8111156115ab576115aa611037565b5b6115b787828801611436565b925050606085013567ffffffffffffffff8111156115d8576115d7611037565b5b6115e4878288016114eb565b91505092959194509250565b600082825260208201905092915050565b7f4e6f74206f776e65720000000000000000000000000000000000000000000000600082015250565b60006116376009836115f0565b915061164282611601565b602082019050919050565b600060208201905081810360008301526116668161162a565b9050919050565b7f416d6f756e74206d757374206265203e20300000000000000000000000000000600082015250565b60006116a36012836115f0565b91506116ae8261166d565b602082019050919050565b600060208201905081810360008301526116d281611696565b9050919050565b6116e2816110ff565b82525050565b60006020820190506116fd60008301846116d9565b92915050565b7f4e487b7100000000000000000000000000000000000000000000000000000000600052603260045260246000fd5b600082825260208201905092915050565b6000819050919050565b600082825260208201905092915050565b600061176a838561174d565b935061177783858461149a565b61178083611214565b840190509392505050565b600061179884848461175e565b90509392505050565b600080fd5b600080fd5b600080fd5b600080833560016020038436030381126117cd576117cc6117ab565b5b83810192508235915060208301925067ffffffffffffffff8211156117f5576117f46117a1565b5b60018202360383131561180b5761180a6117a6565b5b509250929050565b6000602082019050919050565b600061182c8385611732565b93508360208402850161183e84611743565b8060005b8781101561188457848403895261185982846117b0565b61186486828461178b565b955061186f84611813565b935060208b019a505050600181019050611842565b50829750879450505050509392505050565b60006040820190506118ab60008301866111ea565b81810360208301526118be818486611820565b9050949350505050565b6000815190506118d781611109565b92915050565b6000602082840312156118f3576118f2611032565b5b6000611901848285016118c8565b91505092915050565b7f4e6f20746f6b656e2062616c616e636500000000000000000000000000000000600082015250565b60006119406010836115f0565b915061194b8261190a565b602082019050919050565b6000602082019050818103600083015261196f81611933565b9050919050565b600060408201905061198b60008301856111ea565b61199860208301846116d9565b9392505050565b60008115159050919050565b6119b48161199f565b81146119bf57600080fd5b50565b6000815190506119d1816119ab565b92915050565b6000602082840312156119ed576119ec611032565b5b60006119fb848285016119c2565b91505092915050565b7f466c6173684c6f616e50726f76696465723a204e6f74207661756c7400000000600082015250565b6000611a3a601c836115f0565b9150611a4582611a04565b602082019050919050565b60006020820190508181036000830152611a6981611a2d565b9050919050565b7f4e487b7100000000000000000000000000000000000000000000000000000000600052601160045260246000fd5b6000611aaa826110ff565b9150611ab5836110ff565b9250828201905080821115611acd57611acc611a70565b5b92915050565b6000611ade826110a1565b9050919050565b611aee81611ad3565b8114611af957600080fd5b50565b600081519050611b0b81611ae5565b92915050565b600067ffffffffffffffff821115611b2c57611b2b611225565b5b602082029050602081019050919050565b60005b83811015611b5b578082015181840152602081019050611b40565b60008484015250505050565b6000611b7a611b7584611469565b611285565b905082815260208101848484011115611b9657611b95611464565b5b611ba1848285611b3d565b509392505050565b600082601f830112611bbe57611bbd61103c565b5b8151611bce848260208601611b67565b91505092915050565b6000611bea611be584611b11565b611285565b90508083825260208201905060208402830185811115611c0d57611c0c611046565b5b835b81811015611c5457805167ffffffffffffffff811115611c3257611c3161103c565b5b808601611c3f8982611ba9565b85526020850194505050602081019050611c0f565b5050509392505050565b600082601f830112611c7357611c7261103c565b5b8151611c83848260208601611bd7565b91505092915050565b60008060408385031215611ca357611ca2611032565b5b6000611cb185828601611afc565b925050602083015167ffffffffffffffff811115611cd257611cd1611037565b5b611cde85828601611c5e565b9150509250929050565b7f417262697472616765206e6f742070726f66697461626c650000000000000000600082015250565b6000611d1e6018836115f0565b9150611d2982611ce8565b602082019050919050565b60006020820190508181036000830152611d4d81611d11565b9050919050565b6000611d5f826110ff565b9150611d6a836110ff565b9250828203905081811115611d8257611d81611a70565b5b92915050565b6000604082019050611d9d60008301856116d9565b611daa60208301846116d9565b9392505050565b6000819050919050565b6000611dd6611dd1611dcc846110a1565b611db1565b6110a1565b9050919050565b6000611de882611dbb565b9050919050565b6000611dfa82611ddd565b9050919050565b611e0a81611def565b82525050565b600081519050919050565b600082825260208201905092915050565b6000819050602082019050919050565b6000611e4782611ddd565b9050919050565b611e5781611e3c565b82525050565b6000611e698383611e4e565b60208301905092915050565b6000602082019050919050565b6000611e8d82611e10565b611e978185611e1b565b9350611ea283611e2c565b8060005b83811015611ed3578151611eba8882611e5d565b9750611ec583611e75565b925050600181019050611ea6565b5085935050505092915050565b600081519050919050565b600082825260208201905092915050565b6000819050602082019050919050565b611f15816110ff565b82525050565b6000611f278383611f0c565b60208301905092915050565b6000602082019050919050565b6000611f4b82611ee0565b611f558185611eeb565b9350611f6083611efc565b8060005b83811015611f91578151611f788882611f1b565b9750611f8383611f33565b925050600181019050611f64565b5085935050505092915050565b600081519050919050565b600082825260208201905092915050565b6000611fc582611f9e565b611fcf8185611fa9565b9350611fdf818560208601611b3d565b611fe881611214565b840191505092915050565b60006080820190506120086000830187611e01565b818103602083015261201a8186611e82565b9050818103604083015261202e8185611f40565b905081810360608301526120428184611fba565b905095945050505050565b7f5265656e7472616e637947756172643a207265656e7472616e742063616c6c00600082015250565b6000612083601f836115f0565b915061208e8261204d565b602082019050919050565b600060208201905081810360008301526120b281612076565b9050919050565b600080604083850312156120d0576120cf611032565b5b60006120de858286016118c8565b925050602083015167ffffffffffffffff8111156120ff576120fe611037565b5b61210b85828601611ba9565b9150509250929050565b600061212082611f9e565b61212a818561174d565b935061213a818560208601611b3d565b61214381611214565b840191505092915050565b612157816110c1565b82525050565b600060a083016000830151848203600086015261217a8282612115565b915050602083015161218f602086018261214e565b5060408301516121a26040860182611f0c565b5060608301516121b56060860182611f0c565b5060808301516121c86080860182611f0c565b508091505092915050565b600060208201905081810360008301526121ed818461215d565b905092915050565b600062ffffff82169050919050565b61220d816121f5565b82525050565b61221c816110a1565b82525050565b61010082016000820151612239600085018261214e565b50602082015161224c602085018261214e565b50604082015161225f6040850182612204565b506060820151612272606085018261214e565b5060808201516122856080850182611f0c565b5060a082015161229860a0850182611f0c565b5060c08201516122ab60c0850182611f0c565b5060e08201516122be60e0850182612213565b50505050565b6000610100820190506122da6000830184612222565b92915050565b600081905092915050565b60006122f682611f9e565b61230081856122e0565b9350612310818560208601611b3d565b80840191505092915050565b600061232882846122eb565b915081905092915050565b7f5354000000000000000000000000000000000000000000000000000000000000600082015250565b60006123696002836115f0565b915061237482612333565b602082019050919050565b600060208201905081810360008301526123988161235c565b9050919050565b7f5341000000000000000000000000000000000000000000000000000000000000600082015250565b60006123d56002836115f0565b91506123e08261239f565b602082019050919050565b60006020820190508181036000830152612404816123c8565b905091905056fea2646970667358221220c0e528e96bc8d2f8cf2b859f894cfc70d3504346c073e694975048b2c2baf36e64736f6c634300081c0033",
  "devdoc": {
    "kind": "dev",
    "methods": {
      "receiveFlashLoan(address[],uint256[],uint256[],bytes)": {
        "details": "When `flashLoan` is called on the Vault, it invokes the `receiveFlashLoan` hook on the recipient. At the time of the call, the Vault will have transferred `amounts` for `tokens` to the recipient. Before this call returns, the recipient must have transferred `amounts` plus `feeAmounts` for each token back to the Vault, or else the entire flash loan will revert. `userData` is the same value passed in the `IVault.flashLoan` call."
      }
    },
    "version": 1
  },
  "userdoc": {
    "events": {
      "ArbitrageCompleted(address,address,uint256,uint256)": {
        "notice": "Emitted when an arbitrage completes successfully"
      },
      "ArbitrageStarted(address,address,uint256)": {
        "notice": "Emitted when an arbitrage is initiated"
      }
    },
    "kind": "user",
    "methods": {
      "arbitrageDexes(bytes[],address,address,uint256)": {
        "notice": "Perform arbitrage between Uniswap V3 and PancakeSwap"
      }
    },
    "version": 1
  },
  "storageLayout": {
    "storage": [
      {
        "astId": 777,
        "contract": "contracts/arbitrum/ArbitrageV2.sol:ArbitrageV2",
        "label": "_status",
        "offset": 0,
        "slot": "0",
        "type": "t_uint256"
      },
      {
        "astId": 1206,
        "contract": "contracts/arbitrum/ArbitrageV2.sol:ArbitrageV2",
        "label": "owner",
        "offset": 0,
        "slot": "1",
        "type": "t_address"
      }
    ],
    "types": {
      "t_address": {
        "encoding": "inplace",
        "label": "address",
        "numberOfBytes": "20"
      },
      "t_uint256": {
        "encoding": "inplace",
        "label": "uint256",
        "numberOfBytes": "32"
      }
    }
  }
}