{
  "address": "0x40BD513fCc0e3426c593F1c40fc3DEC132c09634",
  "abi": [
    {
      "anonymous": false,
      "inputs": [
        {
          "indexed": true,
          "internalType": "address",
          "name": "tokenIn",
          "type": "address"
        },
        {
          "indexed": true,
          "internalType": "address",
          "name": "tokenOut",
          "type": "address"
        },
        {
          "indexed": false,
          "internalType": "uint256",
          "name": "amountBorrowed",
          "type": "uint256"
        },
        {
          "indexed": false,
          "internalType": "uint256",
          "name": "profit",
          "type": "uint256"
        }
      ],
      "name": "ArbitrageCompleted",
      "type": "event"
    },
    {
      "anonymous": false,
      "inputs": [
        {
          "indexed": true,
          "internalType": "address",
          "name": "tokenIn",
          "type": "address"
        },
        {
          "indexed": true,
          "internalType": "address",
          "name": "tokenOut",
          "type": "address"
        },
        {
          "indexed": false,
          "internalType": "uint256",
          "name": "amountBorrowed",
          "type": "uint256"
        }
      ],
      "name": "ArbitrageStarted",
      "type": "event"
    },
    {
      "inputs": [],
      "name": "owner",
      "outputs": [
        {
          "internalType": "address",
          "name": "",
          "type": "address"
        }
      ],
      "stateMutability": "view",
      "type": "function"
    },
    {
      "inputs": [
        {
          "internalType": "contract IERC20[]",
          "name": "tokens",
          "type": "address[]"
        },
        {
          "internalType": "uint256[]",
          "name": "amounts",
          "type": "uint256[]"
        },
        {
          "internalType": "uint256[]",
          "name": "feeAmounts",
          "type": "uint256[]"
        },
        {
          "internalType": "bytes",
          "name": "userData",
          "type": "bytes"
        }
      ],
      "name": "receiveFlashLoan",
      "outputs": [],
      "stateMutability": "nonpayable",
      "type": "function"
    },
    {
      "inputs": [
        {
          "internalType": "address",
          "name": "tokenIn",
          "type": "address"
        },
        {
          "internalType": "address",
          "name": "tokenOut",
          "type": "address"
        },
        {
          "internalType": "bytes[]",
          "name": "forwardPaths",
          "type": "bytes[]"
        },
        {
          "internalType": "bytes[]",
          "name": "backwardPaths",
          "type": "bytes[]"
        },
        {
          "internalType": "uint256",
          "name": "borrowAmount",
          "type": "uint256"
        }
      ],
      "name": "simpleArbitrage",
      "outputs": [],
      "stateMutability": "nonpayable",
      "type": "function"
    },
    {
      "inputs": [
        {
          "internalType": "address",
          "name": "token",
          "type": "address"
        }
      ],
      "name": "withdrawToken",
      "outputs": [],
      "stateMutability": "nonpayable",
      "type": "function"
    },
    {
      "stateMutability": "payable",
      "type": "receive"
    }
  ],
  "transactionHash": "0x29bc4000db6b444dacc2c378e379b7516b526835bc8188a0553240127198bde7",
  "args": [],
  "numDeployments": 6,
  "solcInputHash": "763beb16b389f82f4ce0dc12b1c083d1",
  "bytecode": "0x6080604052348015600f57600080fd5b50600160008190555033600160006101000a81548173ffffffffffffffffffffffffffffffffffffffff021916908373ffffffffffffffffffffffffffffffffffffffff160217905550612417806100686000396000f3fe6080604052600436106100435760003560e01c8063894760691461004f5780638da5cb5b14610078578063f04f2707146100a3578063fd5c3edd146100cc5761004a565b3661004a57005b600080fd5b34801561005b57600080fd5b50610076600480360381019061007191906110ce565b6100f5565b005b34801561008457600080fd5b5061008d6102eb565b60405161009a919061110a565b60405180910390f35b3480156100af57600080fd5b506100ca60048036038101906100c5919061146a565b610311565b005b3480156100d857600080fd5b506100f360048036038101906100ee919061159c565b6104ff565b005b600160009054906101000a900473ffffffffffffffffffffffffffffffffffffffff1673ffffffffffffffffffffffffffffffffffffffff163373ffffffffffffffffffffffffffffffffffffffff1614610185576040517f08c379a000000000000000000000000000000000000000000000000000000000815260040161017c906116b5565b60405180910390fd5b60008173ffffffffffffffffffffffffffffffffffffffff166370a08231306040518263ffffffff1660e01b81526004016101c0919061110a565b602060405180830381865afa1580156101dd573d6000803e3d6000fd5b505050506040513d601f19601f8201168201806040525081019061020191906116ea565b905060008111610246576040517f08c379a000000000000000000000000000000000000000000000000000000000815260040161023d90611763565b60405180910390fd5b8173ffffffffffffffffffffffffffffffffffffffff1663a9059cbb600160009054906101000a900473ffffffffffffffffffffffffffffffffffffffff16836040518363ffffffff1660e01b81526004016102a3929190611792565b6020604051808303816000875af11580156102c2573d6000803e3d6000fd5b505050506040513d601f19601f820116820180604052508101906102e691906117f3565b505050565b600160009054906101000a900473ffffffffffffffffffffffffffffffffffffffff1681565b73ba12222222228d8ba445958a75a0704d566bf2c873ffffffffffffffffffffffffffffffffffffffff163373ffffffffffffffffffffffffffffffffffffffff1614610393576040517f08c379a000000000000000000000000000000000000000000000000000000000815260040161038a9061186c565b60405180910390fd5b60005b84518110156104f8576103f98582815181106103b5576103b461188c565b5b60200260200101518583815181106103d0576103cf61188c565b5b60200260200101518584815181106103eb576103ea61188c565b5b602002602001015185610786565b600083828151811061040e5761040d61188c565b5b60200260200101518583815181106104295761042861188c565b5b602002602001015161043b91906118ea565b90508582815181106104505761044f61188c565b5b602002602001015173ffffffffffffffffffffffffffffffffffffffff1663a9059cbb73ba12222222228d8ba445958a75a0704d566bf2c8836040518363ffffffff1660e01b81526004016104a6929190611792565b6020604051808303816000875af11580156104c5573d6000803e3d6000fd5b505050506040513d601f19601f820116820180604052508101906104e991906117f3565b50508080600101915050610396565b5050505050565b600160009054906101000a900473ffffffffffffffffffffffffffffffffffffffff1673ffffffffffffffffffffffffffffffffffffffff163373ffffffffffffffffffffffffffffffffffffffff161461058f576040517f08c379a0000000000000000000000000000000000000000000000000000000008152600401610586906116b5565b60405180910390fd5b600081116105d2576040517f08c379a00000000000000000000000000000000000000000000000000000000081526004016105c99061196a565b60405180910390fd5b8573ffffffffffffffffffffffffffffffffffffffff168773ffffffffffffffffffffffffffffffffffffffff167f19d7ac84096fd884c7ff689fa448c14cc2b828df6c74eff60c4173de059fea468360405161062f919061198a565b60405180910390a36000600167ffffffffffffffff8111156106545761065361113b565b5b6040519080825280602002602001820160405280156106825781602001602082028036833780820191505090505b509050878160008151811061069a5761069961188c565b5b602002602001019073ffffffffffffffffffffffffffffffffffffffff16908173ffffffffffffffffffffffffffffffffffffffff16815250506000600167ffffffffffffffff8111156106f1576106f061113b565b5b60405190808252806020026020018201604052801561071f5781602001602082028036833780820191505090505b50905082816000815181106107375761073661188c565b5b6020026020010181815250506000888888888860405160200161075e959493929190611b09565b604051602081830303815290604052905061077a838383610bee565b50505050505050505050565b61078e610ccf565b6000806000838060200190518101906107a79190611d0b565b9250925092506107cd8773e592427a0aece92de3edee1f18e0157c058615646000610d1e565b61080c8773e592427a0aece92de3edee1f18e0157c058615647fffffffffffffffffffffffffffffffffffffffffffffffffffffffffffffffff610d1e565b6000805b83518110156109475760008060008684815181106108315761083061188c565b5b602002602001015180602001905181019061084c9190611d96565b92509250925073e592427a0aece92de3edee1f18e0157c0586156473ffffffffffffffffffffffffffffffffffffffff1663c04b8d596040518060a001604052808481526020013073ffffffffffffffffffffffffffffffffffffffff168152602001603c426108bc91906118ea565b8152602001868152602001858152506040518263ffffffff1660e01b81526004016108e79190611edd565b6020604051808303816000875af1158015610906573d6000803e3d6000fd5b505050506040513d601f19601f8201168201806040525081019061092a91906116ea565b8561093591906118ea565b94508380600101945050505050610810565b506109688473e592427a0aece92de3edee1f18e0157c058615646000610d1e565b6109a78473e592427a0aece92de3edee1f18e0157c058615647fffffffffffffffffffffffffffffffffffffffffffffffffffffffffffffffff610d1e565b6000805b8351811015610ae25760008060008684815181106109cc576109cb61188c565b5b60200260200101518060200190518101906109e79190611d96565b92509250925073e592427a0aece92de3edee1f18e0157c0586156473ffffffffffffffffffffffffffffffffffffffff1663c04b8d596040518060a001604052808481526020013073ffffffffffffffffffffffffffffffffffffffff168152602001603c42610a5791906118ea565b8152602001868152602001858152506040518263ffffffff1660e01b8152600401610a829190611edd565b6020604051808303816000875af1158015610aa1573d6000803e3d6000fd5b505050506040513d601f19601f82011682018060405250810190610ac591906116ea565b85610ad091906118ea565b945083806001019450505050506109ab565b5060008789610af191906118ea565b9050808211610b35576040517f08c379a0000000000000000000000000000000000000000000000000000000008152600401610b2c90611f4b565b60405180910390fd5b60008183610b439190611f6b565b9050610b728b600160009054906101000a900473ffffffffffffffffffffffffffffffffffffffff1683610e73565b8673ffffffffffffffffffffffffffffffffffffffff168b73ffffffffffffffffffffffffffffffffffffffff167f904ae207ac2ad187558223683996c4334fd731418301729349e3cbbad5cb9f588c84604051610bd1929190611f9f565b60405180910390a350505050505050610be8610fc8565b50505050565b6000835167ffffffffffffffff811115610c0b57610c0a61113b565b5b604051908082528060200260200182016040528015610c395781602001602082028036833780820191505090505b50905060005b8451811015610cbd57848181518110610c5b57610c5a61188c565b5b6020026020010151828281518110610c7657610c7561188c565b5b602002602001019073ffffffffffffffffffffffffffffffffffffffff16908173ffffffffffffffffffffffffffffffffffffffff16815250508080600101915050610c3f565b50610cc9818484610fd2565b50505050565b600260005403610d14576040517f08c379a0000000000000000000000000000000000000000000000000000000008152600401610d0b90612014565b60405180910390fd5b6002600081905550565b6000808473ffffffffffffffffffffffffffffffffffffffff1663095ea7b360e01b8585604051602401610d53929190611792565b604051602081830303815290604052907bffffffffffffffffffffffffffffffffffffffffffffffffffffffff19166020820180517bffffffffffffffffffffffffffffffffffffffffffffffffffffffff8381831617835250505050604051610dbd9190612070565b6000604051808303816000865af19150503d8060008114610dfa576040519150601f19603f3d011682016040523d82523d6000602084013e610dff565b606091505b5091509150818015610e2d5750600081511480610e2c575080806020019051810190610e2b91906117f3565b5b5b610e6c576040517f08c379a0000000000000000000000000000000000000000000000000000000008152600401610e63906120d3565b60405180910390fd5b5050505050565b6000808473ffffffffffffffffffffffffffffffffffffffff1663a9059cbb60e01b8585604051602401610ea8929190611792565b604051602081830303815290604052907bffffffffffffffffffffffffffffffffffffffffffffffffffffffff19166020820180517bffffffffffffffffffffffffffffffffffffffffffffffffffffffff8381831617835250505050604051610f129190612070565b6000604051808303816000865af19150503d8060008114610f4f576040519150601f19603f3d011682016040523d82523d6000602084013e610f54565b606091505b5091509150818015610f825750600081511480610f81575080806020019051810190610f8091906117f3565b5b5b610fc1576040517f08c379a0000000000000000000000000000000000000000000000000000000008152600401610fb89061213f565b60405180910390fd5b5050505050565b6001600081905550565b73ba12222222228d8ba445958a75a0704d566bf2c873ffffffffffffffffffffffffffffffffffffffff16635c38449e308585856040518563ffffffff1660e01b81526004016110259493929190612387565b600060405180830381600087803b15801561103f57600080fd5b505af1158015611053573d6000803e3d6000fd5b50505050505050565b6000604051905090565b600080fd5b600080fd5b600073ffffffffffffffffffffffffffffffffffffffff82169050919050565b600061109b82611070565b9050919050565b6110ab81611090565b81146110b657600080fd5b50565b6000813590506110c8816110a2565b92915050565b6000602082840312156110e4576110e3611066565b5b60006110f2848285016110b9565b91505092915050565b61110481611090565b82525050565b600060208201905061111f60008301846110fb565b92915050565b600080fd5b6000601f19601f8301169050919050565b7f4e487b7100000000000000000000000000000000000000000000000000000000600052604160045260246000fd5b6111738261112a565b810181811067ffffffffffffffff821117156111925761119161113b565b5b80604052505050565b60006111a561105c565b90506111b1828261116a565b919050565b600067ffffffffffffffff8211156111d1576111d061113b565b5b602082029050602081019050919050565b600080fd5b60006111f282611090565b9050919050565b611202816111e7565b811461120d57600080fd5b50565b60008135905061121f816111f9565b92915050565b6000611238611233846111b6565b61119b565b9050808382526020820190506020840283018581111561125b5761125a6111e2565b5b835b8181101561128457806112708882611210565b84526020840193505060208101905061125d565b5050509392505050565b600082601f8301126112a3576112a2611125565b5b81356112b3848260208601611225565b91505092915050565b600067ffffffffffffffff8211156112d7576112d661113b565b5b602082029050602081019050919050565b6000819050919050565b6112fb816112e8565b811461130657600080fd5b50565b600081359050611318816112f2565b92915050565b600061133161132c846112bc565b61119b565b90508083825260208201905060208402830185811115611354576113536111e2565b5b835b8181101561137d57806113698882611309565b845260208401935050602081019050611356565b5050509392505050565b600082601f83011261139c5761139b611125565b5b81356113ac84826020860161131e565b91505092915050565b600080fd5b600067ffffffffffffffff8211156113d5576113d461113b565b5b6113de8261112a565b9050602081019050919050565b82818337600083830152505050565b600061140d611408846113ba565b61119b565b905082815260208101848484011115611429576114286113b5565b5b6114348482856113eb565b509392505050565b600082601f83011261145157611450611125565b5b81356114618482602086016113fa565b91505092915050565b6000806000806080858703121561148457611483611066565b5b600085013567ffffffffffffffff8111156114a2576114a161106b565b5b6114ae8782880161128e565b945050602085013567ffffffffffffffff8111156114cf576114ce61106b565b5b6114db87828801611387565b935050604085013567ffffffffffffffff8111156114fc576114fb61106b565b5b61150887828801611387565b925050606085013567ffffffffffffffff8111156115295761152861106b565b5b6115358782880161143c565b91505092959194509250565b600080fd5b60008083601f84011261155c5761155b611125565b5b8235905067ffffffffffffffff81111561157957611578611541565b5b602083019150836020820283011115611595576115946111e2565b5b9250929050565b600080600080600080600060a0888a0312156115bb576115ba611066565b5b60006115c98a828b016110b9565b97505060206115da8a828b016110b9565b965050604088013567ffffffffffffffff8111156115fb576115fa61106b565b5b6116078a828b01611546565b9550955050606088013567ffffffffffffffff81111561162a5761162961106b565b5b6116368a828b01611546565b935093505060806116498a828b01611309565b91505092959891949750929550565b600082825260208201905092915050565b7f4e6f74206f776e65720000000000000000000000000000000000000000000000600082015250565b600061169f600983611658565b91506116aa82611669565b602082019050919050565b600060208201905081810360008301526116ce81611692565b9050919050565b6000815190506116e4816112f2565b92915050565b600060208284031215611700576116ff611066565b5b600061170e848285016116d5565b91505092915050565b7f4e6f20746f6b656e2062616c616e636500000000000000000000000000000000600082015250565b600061174d601083611658565b915061175882611717565b602082019050919050565b6000602082019050818103600083015261177c81611740565b9050919050565b61178c816112e8565b82525050565b60006040820190506117a760008301856110fb565b6117b46020830184611783565b9392505050565b60008115159050919050565b6117d0816117bb565b81146117db57600080fd5b50565b6000815190506117ed816117c7565b92915050565b60006020828403121561180957611808611066565b5b6000611817848285016117de565b91505092915050565b7f466c6173684c6f616e50726f76696465723a204e6f74207661756c7400000000600082015250565b6000611856601c83611658565b915061186182611820565b602082019050919050565b6000602082019050818103600083015261188581611849565b9050919050565b7f4e487b7100000000000000000000000000000000000000000000000000000000600052603260045260246000fd5b7f4e487b7100000000000000000000000000000000000000000000000000000000600052601160045260246000fd5b60006118f5826112e8565b9150611900836112e8565b9250828201905080821115611918576119176118bb565b5b92915050565b7f496e76616c696420626f72726f7720616d6f756e740000000000000000000000600082015250565b6000611954601583611658565b915061195f8261191e565b602082019050919050565b6000602082019050818103600083015261198381611947565b9050919050565b600060208201905061199f6000830184611783565b92915050565b600082825260208201905092915050565b6000819050919050565b600082825260208201905092915050565b60006119dd83856119c0565b93506119ea8385846113eb565b6119f38361112a565b840190509392505050565b6000611a0b8484846119d1565b90509392505050565b600080fd5b600080fd5b600080fd5b60008083356001602003843603038112611a4057611a3f611a1e565b5b83810192508235915060208301925067ffffffffffffffff821115611a6857611a67611a14565b5b600182023603831315611a7e57611a7d611a19565b5b509250929050565b6000602082019050919050565b6000611a9f83856119a5565b935083602084028501611ab1846119b6565b8060005b87811015611af7578484038952611acc8284611a23565b611ad78682846119fe565b9550611ae284611a86565b935060208b019a505050600181019050611ab5565b50829750879450505050509392505050565b6000606082019050611b1e60008301886110fb565b8181036020830152611b31818688611a93565b90508181036040830152611b46818486611a93565b90509695505050505050565b6000611b5d82611070565b9050919050565b611b6d81611b52565b8114611b7857600080fd5b50565b600081519050611b8a81611b64565b92915050565b600067ffffffffffffffff821115611bab57611baa61113b565b5b602082029050602081019050919050565b60005b83811015611bda578082015181840152602081019050611bbf565b60008484015250505050565b6000611bf9611bf4846113ba565b61119b565b905082815260208101848484011115611c1557611c146113b5565b5b611c20848285611bbc565b509392505050565b600082601f830112611c3d57611c3c611125565b5b8151611c4d848260208601611be6565b91505092915050565b6000611c69611c6484611b90565b61119b565b90508083825260208201905060208402830185811115611c8c57611c8b6111e2565b5b835b81811015611cd357805167ffffffffffffffff811115611cb157611cb0611125565b5b808601611cbe8982611c28565b85526020850194505050602081019050611c8e565b5050509392505050565b600082601f830112611cf257611cf1611125565b5b8151611d02848260208601611c56565b91505092915050565b600080600060608486031215611d2457611d23611066565b5b6000611d3286828701611b7b565b935050602084015167ffffffffffffffff811115611d5357611d5261106b565b5b611d5f86828701611cdd565b925050604084015167ffffffffffffffff811115611d8057611d7f61106b565b5b611d8c86828701611cdd565b9150509250925092565b600080600060608486031215611daf57611dae611066565b5b6000611dbd868287016116d5565b9350506020611dce868287016116d5565b925050604084015167ffffffffffffffff811115611def57611dee61106b565b5b611dfb86828701611c28565b9150509250925092565b600081519050919050565b6000611e1b82611e05565b611e2581856119c0565b9350611e35818560208601611bbc565b611e3e8161112a565b840191505092915050565b611e5281611090565b82525050565b611e61816112e8565b82525050565b600060a0830160008301518482036000860152611e848282611e10565b9150506020830151611e996020860182611e49565b506040830151611eac6040860182611e58565b506060830151611ebf6060860182611e58565b506080830151611ed26080860182611e58565b508091505092915050565b60006020820190508181036000830152611ef78184611e67565b905092915050565b7f417262697472616765206e6f742070726f66697461626c650000000000000000600082015250565b6000611f35601883611658565b9150611f4082611eff565b602082019050919050565b60006020820190508181036000830152611f6481611f28565b9050919050565b6000611f76826112e8565b9150611f81836112e8565b9250828203905081811115611f9957611f986118bb565b5b92915050565b6000604082019050611fb46000830185611783565b611fc16020830184611783565b9392505050565b7f5265656e7472616e637947756172643a207265656e7472616e742063616c6c00600082015250565b6000611ffe601f83611658565b915061200982611fc8565b602082019050919050565b6000602082019050818103600083015261202d81611ff1565b9050919050565b600081905092915050565b600061204a82611e05565b6120548185612034565b9350612064818560208601611bbc565b80840191505092915050565b600061207c828461203f565b915081905092915050565b7f5341000000000000000000000000000000000000000000000000000000000000600082015250565b60006120bd600283611658565b91506120c882612087565b602082019050919050565b600060208201905081810360008301526120ec816120b0565b9050919050565b7f5354000000000000000000000000000000000000000000000000000000000000600082015250565b6000612129600283611658565b9150612134826120f3565b602082019050919050565b600060208201905081810360008301526121588161211c565b9050919050565b6000819050919050565b600061218461217f61217a84611070565b61215f565b611070565b9050919050565b600061219682612169565b9050919050565b60006121a88261218b565b9050919050565b6121b88161219d565b82525050565b600081519050919050565b600082825260208201905092915050565b6000819050602082019050919050565b60006121f58261218b565b9050919050565b612205816121ea565b82525050565b600061221783836121fc565b60208301905092915050565b6000602082019050919050565b600061223b826121be565b61224581856121c9565b9350612250836121da565b8060005b83811015612281578151612268888261220b565b975061227383612223565b925050600181019050612254565b5085935050505092915050565b600081519050919050565b600082825260208201905092915050565b6000819050602082019050919050565b60006122c68383611e58565b60208301905092915050565b6000602082019050919050565b60006122ea8261228e565b6122f48185612299565b93506122ff836122aa565b8060005b8381101561233057815161231788826122ba565b9750612322836122d2565b925050600181019050612303565b5085935050505092915050565b600082825260208201905092915050565b600061235982611e05565b612363818561233d565b9350612373818560208601611bbc565b61237c8161112a565b840191505092915050565b600060808201905061239c60008301876121af565b81810360208301526123ae8186612230565b905081810360408301526123c281856122df565b905081810360608301526123d6818461234e565b90509594505050505056fea26469706673582212208d03fcdfbdb45e4f020b98d011a4acf1060ddd727bebc6f1cd1eea0d2ed7d75c64736f6c634300081c0033",
  "devdoc": {
    "kind": "dev",
    "methods": {
      "receiveFlashLoan(address[],uint256[],uint256[],bytes)": {
        "details": "When `flashLoan` is called on the Vault, it invokes the `receiveFlashLoan` hook on the recipient. At the time of the call, the Vault will have transferred `amounts` for `tokens` to the recipient. Before this call returns, the recipient must have transferred `amounts` plus `feeAmounts` for each token back to the Vault, or else the entire flash loan will revert. `userData` is the same value passed in the `IVault.flashLoan` call."
      }
    },
    "version": 1
  },
  "userdoc": {
    "kind": "user",
    "methods": {},
    "version": 1
  },
  "storageLayout": {
    "storage": [
      {
        "astId": 777,
        "contract": "contracts/arbitrum/SimpleArbitrage.sol:SimpleArbitrage",
        "label": "_status",
        "offset": 0,
        "slot": "0",
        "type": "t_uint256"
      },
      {
        "astId": 1206,
        "contract": "contracts/arbitrum/SimpleArbitrage.sol:SimpleArbitrage",
        "label": "owner",
        "offset": 0,
        "slot": "1",
        "type": "t_address"
      }
    ],
    "types": {
      "t_address": {
        "encoding": "inplace",
        "label": "address",
        "numberOfBytes": "20"
      },
      "t_uint256": {
        "encoding": "inplace",
        "label": "uint256",
        "numberOfBytes": "32"
      }
    }
  }
}