{
  "address": "0x8116AD92c2F58c13389e4a6e0ACaD3eD04c28C59",
  "abi": [
    {
      "anonymous": false,
      "inputs": [
        {
          "indexed": true,
          "internalType": "address",
          "name": "tokenIn",
          "type": "address"
        },
        {
          "indexed": true,
          "internalType": "address",
          "name": "tokenOut",
          "type": "address"
        },
        {
          "indexed": false,
          "internalType": "uint256",
          "name": "amountBorrowed",
          "type": "uint256"
        },
        {
          "indexed": false,
          "internalType": "uint256",
          "name": "profit",
          "type": "uint256"
        }
      ],
      "name": "ArbitrageCompleted",
      "type": "event"
    },
    {
      "anonymous": false,
      "inputs": [
        {
          "indexed": true,
          "internalType": "address",
          "name": "tokenIn",
          "type": "address"
        },
        {
          "indexed": true,
          "internalType": "address",
          "name": "tokenOut",
          "type": "address"
        },
        {
          "indexed": false,
          "internalType": "uint256",
          "name": "amountBorrowed",
          "type": "uint256"
        }
      ],
      "name": "ArbitrageStarted",
      "type": "event"
    },
    {
      "inputs": [],
      "name": "owner",
      "outputs": [
        {
          "internalType": "address",
          "name": "",
          "type": "address"
        }
      ],
      "stateMutability": "view",
      "type": "function"
    },
    {
      "inputs": [
        {
          "internalType": "contract IERC20[]",
          "name": "tokens",
          "type": "address[]"
        },
        {
          "internalType": "uint256[]",
          "name": "amounts",
          "type": "uint256[]"
        },
        {
          "internalType": "uint256[]",
          "name": "feeAmounts",
          "type": "uint256[]"
        },
        {
          "internalType": "bytes",
          "name": "userData",
          "type": "bytes"
        }
      ],
      "name": "receiveFlashLoan",
      "outputs": [],
      "stateMutability": "nonpayable",
      "type": "function"
    },
    {
      "inputs": [
        {
          "internalType": "address",
          "name": "tokenIn",
          "type": "address"
        },
        {
          "internalType": "address",
          "name": "tokenOut",
          "type": "address"
        },
        {
          "internalType": "bytes[]",
          "name": "forwardPaths",
          "type": "bytes[]"
        },
        {
          "internalType": "bytes[]",
          "name": "backwardPaths",
          "type": "bytes[]"
        },
        {
          "internalType": "uint256",
          "name": "borrowAmount",
          "type": "uint256"
        }
      ],
      "name": "simpleArbitrage",
      "outputs": [],
      "stateMutability": "nonpayable",
      "type": "function"
    },
    {
      "inputs": [
        {
          "internalType": "address",
          "name": "token",
          "type": "address"
        }
      ],
      "name": "withdrawToken",
      "outputs": [],
      "stateMutability": "nonpayable",
      "type": "function"
    },
    {
      "stateMutability": "payable",
      "type": "receive"
    }
  ],
  "transactionHash": "0x6e8c88f2cc50d1c4234a5884115313d12be70b61d867298ce566ce219dab52b4",
  "args": [],
  "numDeployments": 7,
  "solcInputHash": "2803dabfecbdf457a1c6ff4fc7516b9b",
  "bytecode": "0x6080604052348015600f57600080fd5b506001600081905580546001600160a01b031916331790556114e5806100366000396000f3fe6080604052600436106100435760003560e01c8063894760691461004f5780638da5cb5b14610071578063f04f2707146100ad578063fd5c3edd146100cd57600080fd5b3661004a57005b600080fd5b34801561005b57600080fd5b5061006f61006a366004610c86565b6100ed565b005b34801561007d57600080fd5b50600154610091906001600160a01b031681565b6040516001600160a01b03909116815260200160405180910390f35b3480156100b957600080fd5b5061006f6100c8366004610dfb565b61028a565b3480156100d957600080fd5b5061006f6100e8366004610f69565b610446565b6001546001600160a01b031633146101385760405162461bcd60e51b81526020600482015260096024820152682737ba1037bbb732b960b91b60448201526064015b60405180910390fd5b6040517f70a082310000000000000000000000000000000000000000000000000000000081523060048201526000906001600160a01b038316906370a0823190602401602060405180830381865afa158015610198573d6000803e3d6000fd5b505050506040513d601f19601f820116820180604052508101906101bc919061100c565b90506000811161020e5760405162461bcd60e51b815260206004820152601060248201527f4e6f20746f6b656e2062616c616e636500000000000000000000000000000000604482015260640161012f565b60015460405163a9059cbb60e01b81526001600160a01b039182166004820152602481018390529083169063a9059cbb906044016020604051808303816000875af1158015610261573d6000803e3d6000fd5b505050506040513d601f19601f820116820180604052508101906102859190611025565b505050565b3373ba12222222228d8ba445958a75a0704d566bf2c8146102ed5760405162461bcd60e51b815260206004820152601c60248201527f466c6173684c6f616e50726f76696465723a204e6f74207661756c7400000000604482015260640161012f565b60005b845181101561043f5761035085828151811061030e5761030e611047565b602002602001015185838151811061032857610328611047565b602002602001015185848151811061034257610342611047565b6020026020010151856105ff565b600083828151811061036457610364611047565b602002602001015185838151811061037e5761037e611047565b60200260200101516103909190611073565b90508582815181106103a4576103a4611047565b602090810291909101015160405163a9059cbb60e01b815273ba12222222228d8ba445958a75a0704d566bf2c86004820152602481018390526001600160a01b039091169063a9059cbb906044016020604051808303816000875af1158015610411573d6000803e3d6000fd5b505050506040513d601f19601f820116820180604052508101906104359190611025565b50506001016102f0565b5050505050565b6001546001600160a01b0316331461048c5760405162461bcd60e51b81526020600482015260096024820152682737ba1037bbb732b960b91b604482015260640161012f565b600081116104dc5760405162461bcd60e51b815260206004820152601560248201527f496e76616c696420626f72726f7720616d6f756e740000000000000000000000604482015260640161012f565b856001600160a01b0316876001600160a01b03167f19d7ac84096fd884c7ff689fa448c14cc2b828df6c74eff60c4173de059fea468360405161052191815260200190565b60405180910390a360408051600180825281830190925260009160208083019080368337019050509050878160008151811061055f5761055f611047565b6001600160a01b03929092166020928302919091019091015260408051600180825281830190925260009181602001602082028036833701905050905082816000815181106105b0576105b0611047565b602002602001018181525050600088888888886040516020016105d795949392919061114f565b60405160208183030381529060405290506105f383838361099a565b50505050505050505050565b610607610a46565b6000806000838060200190518101906106209190611285565b9250925092506106468773e592427a0aece92de3edee1f18e0157c058615646000610a9f565b6106678773e592427a0aece92de3edee1f18e0157c05861564600019610a9f565b6000805b835181101561077357600080600086848151811061068b5761068b611047565b60200260200101518060200190518101906106a69190611301565b6040805160a081018252828152306020820152939650919450925073e592427a0aece92de3edee1f18e0157c058615649163c04b8d599181016106ea42603c611073565b8152602001868152602001858152506040518263ffffffff1660e01b81526004016107159190611374565b6020604051808303816000875af1158015610734573d6000803e3d6000fd5b505050506040513d601f19601f82011682018060405250810190610758919061100c565b6107629086611073565b9450506001909201915061066b9050565b506107948473e592427a0aece92de3edee1f18e0157c058615646000610a9f565b6107b58473e592427a0aece92de3edee1f18e0157c05861564600019610a9f565b6000805b83518110156108c15760008060008684815181106107d9576107d9611047565b60200260200101518060200190518101906107f49190611301565b6040805160a081018252828152306020820152939650919450925073e592427a0aece92de3edee1f18e0157c058615649163c04b8d5991810161083842603c611073565b8152602001868152602001858152506040518263ffffffff1660e01b81526004016108639190611374565b6020604051808303816000875af1158015610882573d6000803e3d6000fd5b505050506040513d601f19601f820116820180604052508101906108a6919061100c565b6108b09086611073565b945050600190920191506107b99050565b5060006108ce888a611073565b905080821161091f5760405162461bcd60e51b815260206004820152601860248201527f417262697472616765206e6f742070726f66697461626c650000000000000000604482015260640161012f565b600061092b82846113cd565b9050866001600160a01b03168b6001600160a01b03167f904ae207ac2ad187558223683996c4334fd731418301729349e3cbbad5cb9f588c8460405161097b929190918252602082015260400190565b60405180910390a3505050505050506109946001600055565b50505050565b6000835167ffffffffffffffff8111156109b6576109b6610caa565b6040519080825280602002602001820160405280156109df578160200160208202803683370190505b50905060005b8451811015610a3a57848181518110610a0057610a00611047565b6020026020010151828281518110610a1a57610a1a611047565b6001600160a01b03909216602092830291909101909101526001016109e5565b50610994818484610be1565b600260005403610a985760405162461bcd60e51b815260206004820152601f60248201527f5265656e7472616e637947756172643a207265656e7472616e742063616c6c00604482015260640161012f565b6002600055565b604080516001600160a01b038481166024830152604480830185905283518084039091018152606490920183526020820180517bffffffffffffffffffffffffffffffffffffffffffffffffffffffff167f095ea7b3000000000000000000000000000000000000000000000000000000001790529151600092839290871691610b2991906113e0565b6000604051808303816000865af19150503d8060008114610b66576040519150601f19603f3d011682016040523d82523d6000602084013e610b6b565b606091505b5091509150818015610b95575080511580610b95575080806020019051810190610b959190611025565b61043f5760405162461bcd60e51b815260206004820152600260248201527f5341000000000000000000000000000000000000000000000000000000000000604482015260640161012f565b6040517f5c38449e00000000000000000000000000000000000000000000000000000000815273ba12222222228d8ba445958a75a0704d566bf2c890635c38449e90610c379030908790879087906004016113fc565b600060405180830381600087803b158015610c5157600080fd5b505af1158015610c65573d6000803e3d6000fd5b50505050505050565b6001600160a01b0381168114610c8357600080fd5b50565b600060208284031215610c9857600080fd5b8135610ca381610c6e565b9392505050565b634e487b7160e01b600052604160045260246000fd5b604051601f8201601f1916810167ffffffffffffffff81118282101715610ce957610ce9610caa565b604052919050565b600067ffffffffffffffff821115610d0b57610d0b610caa565b5060051b60200190565b600082601f830112610d2657600080fd5b8135610d39610d3482610cf1565b610cc0565b8082825260208201915060208360051b860101925085831115610d5b57600080fd5b602085015b83811015610d78578035835260209283019201610d60565b5095945050505050565b600067ffffffffffffffff821115610d9c57610d9c610caa565b50601f01601f191660200190565b600082601f830112610dbb57600080fd5b8135610dc9610d3482610d82565b818152846020838601011115610dde57600080fd5b816020850160208301376000918101602001919091529392505050565b60008060008060808587031215610e1157600080fd5b843567ffffffffffffffff811115610e2857600080fd5b8501601f81018713610e3957600080fd5b8035610e47610d3482610cf1565b8082825260208201915060208360051b850101925089831115610e6957600080fd5b6020840193505b82841015610e94578335610e8381610c6e565b825260209384019390910190610e70565b9650505050602085013567ffffffffffffffff811115610eb357600080fd5b610ebf87828801610d15565b935050604085013567ffffffffffffffff811115610edc57600080fd5b610ee887828801610d15565b925050606085013567ffffffffffffffff811115610f0557600080fd5b610f1187828801610daa565b91505092959194509250565b60008083601f840112610f2f57600080fd5b50813567ffffffffffffffff811115610f4757600080fd5b6020830191508360208260051b8501011115610f6257600080fd5b9250929050565b600080600080600080600060a0888a031215610f8457600080fd5b8735610f8f81610c6e565b96506020880135610f9f81610c6e565b9550604088013567ffffffffffffffff811115610fbb57600080fd5b610fc78a828b01610f1d565b909650945050606088013567ffffffffffffffff811115610fe757600080fd5b610ff38a828b01610f1d565b989b979a50959894979596608090950135949350505050565b60006020828403121561101e57600080fd5b5051919050565b60006020828403121561103757600080fd5b81518015158114610ca357600080fd5b634e487b7160e01b600052603260045260246000fd5b634e487b7160e01b600052601160045260246000fd5b808201808211156110865761108661105d565b92915050565b81835281816020850137506000828201602090810191909152601f909101601f19169091010190565b60008383855260208501945060208460051b8201018360005b8681101561114357838303601f19018852813536879003601e190181126110f457600080fd5b860160208101903567ffffffffffffffff81111561111157600080fd5b80360382131561112057600080fd5b61112b85828461108c565b60209a8b019a909550939093019250506001016110ce565b50909695505050505050565b6001600160a01b03861681526060602082015260006111726060830186886110b5565b82810360408401526111858185876110b5565b98975050505050505050565b60005b838110156111ac578181015183820152602001611194565b50506000910152565b600082601f8301126111c657600080fd5b81516111d4610d3482610d82565b8181528460208386010111156111e957600080fd5b6111fa826020830160208701611191565b949350505050565b600082601f83011261121357600080fd5b8151611221610d3482610cf1565b8082825260208201915060208360051b86010192508583111561124357600080fd5b602085015b83811015610d7857805167ffffffffffffffff81111561126757600080fd5b611276886020838a01016111b5565b84525060209283019201611248565b60008060006060848603121561129a57600080fd5b83516112a581610c6e565b602085015190935067ffffffffffffffff8111156112c257600080fd5b6112ce86828701611202565b925050604084015167ffffffffffffffff8111156112eb57600080fd5b6112f786828701611202565b9150509250925092565b60008060006060848603121561131657600080fd5b835160208501516040860151919450925067ffffffffffffffff81111561133c57600080fd5b6112f7868287016111b5565b60008151808452611360816020860160208601611191565b601f01601f19169290920160200192915050565b602081526000825160a0602084015261139060c0840182611348565b90506001600160a01b0360208501511660408401526040840151606084015260608401516080840152608084015160a08401528091505092915050565b818103818111156110865761108661105d565b600082516113f2818460208701611191565b9190910192915050565b6000608082016001600160a01b03871683526080602084015280865180835260a08501915060208801925060005b818110156114515783516001600160a01b031683526020938401939092019160010161142a565b5050838103604085015285518082526020918201925090860190600090815b8181101561148e578351855260209485019490930192600101611470565b5050505082810360608401526114a48185611348565b97965050505050505056fea264697066735822122097ebd20150625c7febd7a66138f6670b6c93d45db9a11c753a4e4bc2821d471064736f6c634300081c0033",
  "devdoc": {
    "kind": "dev",
    "methods": {
      "receiveFlashLoan(address[],uint256[],uint256[],bytes)": {
        "details": "When `flashLoan` is called on the Vault, it invokes the `receiveFlashLoan` hook on the recipient. At the time of the call, the Vault will have transferred `amounts` for `tokens` to the recipient. Before this call returns, the recipient must have transferred `amounts` plus `feeAmounts` for each token back to the Vault, or else the entire flash loan will revert. `userData` is the same value passed in the `IVault.flashLoan` call."
      }
    },
    "version": 1
  },
  "userdoc": {
    "kind": "user",
    "methods": {},
    "version": 1
  },
  "storageLayout": {
    "storage": [
      {
        "astId": 777,
        "contract": "contracts/arbitrum/SimpleArbitrage.sol:SimpleArbitrage",
        "label": "_status",
        "offset": 0,
        "slot": "0",
        "type": "t_uint256"
      },
      {
        "astId": 1206,
        "contract": "contracts/arbitrum/SimpleArbitrage.sol:SimpleArbitrage",
        "label": "owner",
        "offset": 0,
        "slot": "1",
        "type": "t_address"
      }
    ],
    "types": {
      "t_address": {
        "encoding": "inplace",
        "label": "address",
        "numberOfBytes": "20"
      },
      "t_uint256": {
        "encoding": "inplace",
        "label": "uint256",
        "numberOfBytes": "32"
      }
    }
  }
}