{
  "address": "0x5D17B574eAA9e5861e08052B4a288f33cA487593",
  "abi": [
    {
      "inputs": [],
      "name": "owner",
      "outputs": [
        {
          "internalType": "address",
          "name": "",
          "type": "address"
        }
      ],
      "stateMutability": "view",
      "type": "function"
    },
    {
      "inputs": [
        {
          "internalType": "contract IERC20[]",
          "name": "tokens",
          "type": "address[]"
        },
        {
          "internalType": "uint256[]",
          "name": "amounts",
          "type": "uint256[]"
        },
        {
          "internalType": "uint256[]",
          "name": "feeAmounts",
          "type": "uint256[]"
        },
        {
          "internalType": "bytes",
          "name": "userData",
          "type": "bytes"
        }
      ],
      "name": "receiveFlashLoan",
      "outputs": [],
      "stateMutability": "nonpayable",
      "type": "function"
    },
    {
      "inputs": [
        {
          "internalType": "address",
          "name": "tokenIn",
          "type": "address"
        },
        {
          "internalType": "address",
          "name": "tokenOut",
          "type": "address"
        },
        {
          "internalType": "bytes",
          "name": "forwardPath",
          "type": "bytes"
        },
        {
          "internalType": "uint256",
          "name": "forwardOutMin",
          "type": "uint256"
        },
        {
          "internalType": "bytes",
          "name": "backwardPath",
          "type": "bytes"
        },
        {
          "internalType": "uint256",
          "name": "backwardOutMin",
          "type": "uint256"
        },
        {
          "internalType": "uint256",
          "name": "borrowAmount",
          "type": "uint256"
        }
      ],
      "name": "simpleArbitrage",
      "outputs": [],
      "stateMutability": "nonpayable",
      "type": "function"
    },
    {
      "inputs": [],
      "name": "swapRouter",
      "outputs": [
        {
          "internalType": "contract ISwapRouter",
          "name": "",
          "type": "address"
        }
      ],
      "stateMutability": "view",
      "type": "function"
    },
    {
      "inputs": [],
      "name": "withdraw",
      "outputs": [],
      "stateMutability": "nonpayable",
      "type": "function"
    }
  ],
  "transactionHash": "0xc9be9570b7560d768d9dd40ab7bd337579abf2e725f19533911666dc2f3e6dda",
  "args": [],
  "numDeployments": 1,
  "solcInputHash": "560eb7557af30ce56352731ea1b9ea29",
  "bytecode": "0x6080604052348015600f57600080fd5b50336000806101000a81548173ffffffffffffffffffffffffffffffffffffffff021916908373ffffffffffffffffffffffffffffffffffffffff16021790555061219a8061005f6000396000f3fe608060405234801561001057600080fd5b50600436106100575760003560e01c806313b4a64d1461005c5780633ccfd60b146100785780638da5cb5b14610082578063c31c9c07146100a0578063f04f2707146100be575b600080fd5b61007660048036038101906100719190611081565b6100da565b005b610080610302565b005b61008a610442565b6040516100979190611172565b60405180910390f35b6100a8610466565b6040516100b591906111ec565b60405180910390f35b6100d860048036038101906100d3919061150c565b61047e565b005b60008054906101000a900473ffffffffffffffffffffffffffffffffffffffff1673ffffffffffffffffffffffffffffffffffffffff163373ffffffffffffffffffffffffffffffffffffffff1614610168576040517f08c379a000000000000000000000000000000000000000000000000000000000815260040161015f90611640565b60405180910390fd5b600081116101ab576040517f08c379a00000000000000000000000000000000000000000000000000000000081526004016101a2906116ac565b60405180910390fd5b6000600167ffffffffffffffff8111156101c8576101c7611218565b5b6040519080825280602002602001820160405280156101f65781602001602082028036833780820191505090505b509050898160008151811061020e5761020d6116cc565b5b602002602001019073ffffffffffffffffffffffffffffffffffffffff16908173ffffffffffffffffffffffffffffffffffffffff16815250506000600167ffffffffffffffff81111561026557610264611218565b5b6040519080825280602002602001820160405280156102935781602001602082028036833780820191505090505b50905082816000815181106102ab576102aa6116cc565b5b60200260200101818152505060008b8b8b8b8b8b8b8b6040516020016102d8989796959493929190611748565b60405160208183030381529060405290506102f483838361057a565b505050505050505050505050565b60008054906101000a900473ffffffffffffffffffffffffffffffffffffffff1673ffffffffffffffffffffffffffffffffffffffff163373ffffffffffffffffffffffffffffffffffffffff1614610390576040517f08c379a000000000000000000000000000000000000000000000000000000000815260040161038790611640565b60405180910390fd5b6000479050600081116103d8576040517f08c379a00000000000000000000000000000000000000000000000000000000081526004016103cf90611807565b60405180910390fd5b60008054906101000a900473ffffffffffffffffffffffffffffffffffffffff1673ffffffffffffffffffffffffffffffffffffffff166108fc829081150290604051600060405180830381858888f1935050505015801561043e573d6000803e3d6000fd5b5050565b60008054906101000a900473ffffffffffffffffffffffffffffffffffffffff1681565b73e592427a0aece92de3edee1f18e0157c0586156481565b73ba12222222228d8ba445958a75a0704d566bf2c873ffffffffffffffffffffffffffffffffffffffff163373ffffffffffffffffffffffffffffffffffffffff1614610500576040517f08c379a00000000000000000000000000000000000000000000000000000000081526004016104f790611873565b60405180910390fd5b60005b845181101561057357610566858281518110610522576105216116cc565b5b602002602001015185838151811061053d5761053c6116cc565b5b6020026020010151858481518110610558576105576116cc565b5b60200260200101518561065b565b8080600101915050610503565b5050505050565b6000835167ffffffffffffffff81111561059757610596611218565b5b6040519080825280602002602001820160405280156105c55781602001602082028036833780820191505090505b50905060005b8451811015610649578481815181106105e7576105e66116cc565b5b6020026020010151828281518110610602576106016116cc565b5b602002602001019073ffffffffffffffffffffffffffffffffffffffff16908173ffffffffffffffffffffffffffffffffffffffff168152505080806001019150506105cb565b50610655818484610c0d565b50505050565b600080600080600080868060200190518101906106789190611980565b9550955095509550955095506106a6604051806060016040528060258152602001612140602591398a610c97565b6106e56040518060400160405280600881526020017f546f6b656e496e3a00000000000000000000000000000000000000000000000081525087610d33565b6107246040518060400160405280600981526020017f546f6b656e4f75743a000000000000000000000000000000000000000000000081525086610d33565b6107636040518060400160405280600f81526020017f416d6f756e7420746f20537761703a00000000000000000000000000000000008152508a610c97565b6107a26040518060400160405280600481526020017f4665653a0000000000000000000000000000000000000000000000000000000081525089610c97565b6107e16040518060400160405280600e81526020017f466f72776172644f75744d696e3a00000000000000000000000000000000000081525084610c97565b6108008673e592427a0aece92de3edee1f18e0157c058615648b610dcf565b600073e592427a0aece92de3edee1f18e0157c0586156473ffffffffffffffffffffffffffffffffffffffff1663c04b8d596040518060a001604052808881526020013073ffffffffffffffffffffffffffffffffffffffff1681526020014281526020018d8152602001878152506040518263ffffffff1660e01b815260040161088b9190611b2e565b6020604051808303816000875af11580156108aa573d6000803e3d6000fd5b505050506040513d601f19601f820116820180604052508101906108ce9190611b50565b905061090f6040518060400160405280602081526020017f4f757470757420416d6f756e742066726f6d20466f727761726420537761703a81525082610c97565b60008111610952576040517f08c379a000000000000000000000000000000000000000000000000000000000815260040161094990611bc9565b60405180910390fd5b6109916040518060400160405280600f81526020017f6261636b776172644f75744d696e3a000000000000000000000000000000000081525083610c97565b6109b08673e592427a0aece92de3edee1f18e0157c0586156483610dcf565b600073e592427a0aece92de3edee1f18e0157c0586156473ffffffffffffffffffffffffffffffffffffffff1663c04b8d596040518060a001604052808781526020013073ffffffffffffffffffffffffffffffffffffffff168152602001428152602001858152602001868152506040518263ffffffff1660e01b8152600401610a3b9190611b2e565b6020604051808303816000875af1158015610a5a573d6000803e3d6000fd5b505050506040513d601f19601f82011682018060405250810190610a7e9190611b50565b9050610abf6040518060400160405280602081526020017f46696e616c20416d6f756e742066726f6d204261636b7761726420537761703a81525082610c97565b898b610acb9190611c18565b8111610b0c576040517f08c379a0000000000000000000000000000000000000000000000000000000008152600401610b0390611c98565b60405180910390fd5b610b616040518060400160405280600781526020017f50726f6669743a000000000000000000000000000000000000000000000000008152508b8d84610b529190611cb8565b610b5c9190611cb8565b610c97565b8b73ffffffffffffffffffffffffffffffffffffffff1663a9059cbb73ba12222222228d8ba445958a75a0704d566bf2c88c8e610b9e9190611c18565b6040518363ffffffff1660e01b8152600401610bbb929190611cec565b6020604051808303816000875af1158015610bda573d6000803e3d6000fd5b505050506040513d601f19601f82011682018060405250810190610bfe9190611d4d565b50505050505050505050505050565b73ba12222222228d8ba445958a75a0704d566bf2c873ffffffffffffffffffffffffffffffffffffffff16635c38449e308585856040518563ffffffff1660e01b8152600401610c609493929190611f53565b600060405180830381600087803b158015610c7a57600080fd5b505af1158015610c8e573d6000803e3d6000fd5b50505050505050565b610d2f8282604051602401610cad929190611ff1565b6040516020818303038152906040527fb60e72cc000000000000000000000000000000000000000000000000000000007bffffffffffffffffffffffffffffffffffffffffffffffffffffffff19166020820180517bffffffffffffffffffffffffffffffffffffffffffffffffffffffff8381831617835250505050610f24565b5050565b610dcb8282604051602401610d49929190612021565b6040516020818303038152906040527f319af333000000000000000000000000000000000000000000000000000000007bffffffffffffffffffffffffffffffffffffffffffffffffffffffff19166020820180517bffffffffffffffffffffffffffffffffffffffffffffffffffffffff8381831617835250505050610f24565b5050565b6000808473ffffffffffffffffffffffffffffffffffffffff1663095ea7b360e01b8585604051602401610e04929190611cec565b604051602081830303815290604052907bffffffffffffffffffffffffffffffffffffffffffffffffffffffff19166020820180517bffffffffffffffffffffffffffffffffffffffffffffffffffffffff8381831617835250505050604051610e6e919061208d565b6000604051808303816000865af19150503d8060008114610eab576040519150601f19603f3d011682016040523d82523d6000602084013e610eb0565b606091505b5091509150818015610ede5750600081511480610edd575080806020019051810190610edc9190611d4d565b5b5b610f1d576040517f08c379a0000000000000000000000000000000000000000000000000000000008152600401610f14906120f0565b60405180910390fd5b5050505050565b610f3b81610f33610f3e610f5f565b63ffffffff16565b50565b60006a636f6e736f6c652e6c6f679050600080835160208501845afa505050565b610f6a819050919050565b610f72612110565b565b6000604051905090565b600080fd5b600080fd5b600073ffffffffffffffffffffffffffffffffffffffff82169050919050565b6000610fb382610f88565b9050919050565b610fc381610fa8565b8114610fce57600080fd5b50565b600081359050610fe081610fba565b92915050565b600080fd5b600080fd5b600080fd5b60008083601f84011261100b5761100a610fe6565b5b8235905067ffffffffffffffff81111561102857611027610feb565b5b60208301915083600182028301111561104457611043610ff0565b5b9250929050565b6000819050919050565b61105e8161104b565b811461106957600080fd5b50565b60008135905061107b81611055565b92915050565b600080600080600080600080600060e08a8c0312156110a3576110a2610f7e565b5b60006110b18c828d01610fd1565b99505060206110c28c828d01610fd1565b98505060408a013567ffffffffffffffff8111156110e3576110e2610f83565b5b6110ef8c828d01610ff5565b975097505060606111028c828d0161106c565b95505060808a013567ffffffffffffffff81111561112357611122610f83565b5b61112f8c828d01610ff5565b945094505060a06111428c828d0161106c565b92505060c06111538c828d0161106c565b9150509295985092959850929598565b61116c81610fa8565b82525050565b60006020820190506111876000830184611163565b92915050565b6000819050919050565b60006111b26111ad6111a884610f88565b61118d565b610f88565b9050919050565b60006111c482611197565b9050919050565b60006111d6826111b9565b9050919050565b6111e6816111cb565b82525050565b600060208201905061120160008301846111dd565b92915050565b6000601f19601f8301169050919050565b7f4e487b7100000000000000000000000000000000000000000000000000000000600052604160045260246000fd5b61125082611207565b810181811067ffffffffffffffff8211171561126f5761126e611218565b5b80604052505050565b6000611282610f74565b905061128e8282611247565b919050565b600067ffffffffffffffff8211156112ae576112ad611218565b5b602082029050602081019050919050565b60006112ca82610fa8565b9050919050565b6112da816112bf565b81146112e557600080fd5b50565b6000813590506112f7816112d1565b92915050565b600061131061130b84611293565b611278565b9050808382526020820190506020840283018581111561133357611332610ff0565b5b835b8181101561135c578061134888826112e8565b845260208401935050602081019050611335565b5050509392505050565b600082601f83011261137b5761137a610fe6565b5b813561138b8482602086016112fd565b91505092915050565b600067ffffffffffffffff8211156113af576113ae611218565b5b602082029050602081019050919050565b60006113d36113ce84611394565b611278565b905080838252602082019050602084028301858111156113f6576113f5610ff0565b5b835b8181101561141f578061140b888261106c565b8452602084019350506020810190506113f8565b5050509392505050565b600082601f83011261143e5761143d610fe6565b5b813561144e8482602086016113c0565b91505092915050565b600080fd5b600067ffffffffffffffff82111561147757611476611218565b5b61148082611207565b9050602081019050919050565b82818337600083830152505050565b60006114af6114aa8461145c565b611278565b9050828152602081018484840111156114cb576114ca611457565b5b6114d684828561148d565b509392505050565b600082601f8301126114f3576114f2610fe6565b5b813561150384826020860161149c565b91505092915050565b6000806000806080858703121561152657611525610f7e565b5b600085013567ffffffffffffffff81111561154457611543610f83565b5b61155087828801611366565b945050602085013567ffffffffffffffff81111561157157611570610f83565b5b61157d87828801611429565b935050604085013567ffffffffffffffff81111561159e5761159d610f83565b5b6115aa87828801611429565b925050606085013567ffffffffffffffff8111156115cb576115ca610f83565b5b6115d7878288016114de565b91505092959194509250565b600082825260208201905092915050565b7f4e6f74206f776e65720000000000000000000000000000000000000000000000600082015250565b600061162a6009836115e3565b9150611635826115f4565b602082019050919050565b600060208201905081810360008301526116598161161d565b9050919050565b7f496e76616c696420626f72726f7720616d6f756e740000000000000000000000600082015250565b60006116966015836115e3565b91506116a182611660565b602082019050919050565b600060208201905081810360008301526116c581611689565b9050919050565b7f4e487b7100000000000000000000000000000000000000000000000000000000600052603260045260246000fd5b600082825260208201905092915050565b600061171883856116fb565b935061172583858461148d565b61172e83611207565b840190509392505050565b6117428161104b565b82525050565b600060c08201905061175d600083018b611163565b61176a602083018a611163565b818103604083015261177d81888a61170c565b905061178c6060830187611739565b818103608083015261179f81858761170c565b90506117ae60a0830184611739565b9998505050505050505050565b7f4e6f204554480000000000000000000000000000000000000000000000000000600082015250565b60006117f16006836115e3565b91506117fc826117bb565b602082019050919050565b60006020820190508181036000830152611820816117e4565b9050919050565b7f466c6173684c6f616e50726f76696465723a204e6f74207661756c7400000000600082015250565b600061185d601c836115e3565b915061186882611827565b602082019050919050565b6000602082019050818103600083015261188c81611850565b9050919050565b600061189e82610f88565b9050919050565b6118ae81611893565b81146118b957600080fd5b50565b6000815190506118cb816118a5565b92915050565b60005b838110156118ef5780820151818401526020810190506118d4565b60008484015250505050565b600061190e6119098461145c565b611278565b90508281526020810184848401111561192a57611929611457565b5b6119358482856118d1565b509392505050565b600082601f83011261195257611951610fe6565b5b81516119628482602086016118fb565b91505092915050565b60008151905061197a81611055565b92915050565b60008060008060008060c0878903121561199d5761199c610f7e565b5b60006119ab89828a016118bc565b96505060206119bc89828a016118bc565b955050604087015167ffffffffffffffff8111156119dd576119dc610f83565b5b6119e989828a0161193d565b94505060606119fa89828a0161196b565b935050608087015167ffffffffffffffff811115611a1b57611a1a610f83565b5b611a2789828a0161193d565b92505060a0611a3889828a0161196b565b9150509295509295509295565b600081519050919050565b600082825260208201905092915050565b6000611a6c82611a45565b611a768185611a50565b9350611a868185602086016118d1565b611a8f81611207565b840191505092915050565b611aa381610fa8565b82525050565b611ab28161104b565b82525050565b600060a0830160008301518482036000860152611ad58282611a61565b9150506020830151611aea6020860182611a9a565b506040830151611afd6040860182611aa9565b506060830151611b106060860182611aa9565b506080830151611b236080860182611aa9565b508091505092915050565b60006020820190508181036000830152611b488184611ab8565b905092915050565b600060208284031215611b6657611b65610f7e565b5b6000611b748482850161196b565b91505092915050565b7f466f72776172642073776170206661696c656400000000000000000000000000600082015250565b6000611bb36013836115e3565b9150611bbe82611b7d565b602082019050919050565b60006020820190508181036000830152611be281611ba6565b9050919050565b7f4e487b7100000000000000000000000000000000000000000000000000000000600052601160045260246000fd5b6000611c238261104b565b9150611c2e8361104b565b9250828201905080821115611c4657611c45611be9565b5b92915050565b7f417262697472616765206e6f742070726f66697461626c650000000000000000600082015250565b6000611c826018836115e3565b9150611c8d82611c4c565b602082019050919050565b60006020820190508181036000830152611cb181611c75565b9050919050565b6000611cc38261104b565b9150611cce8361104b565b9250828203905081811115611ce657611ce5611be9565b5b92915050565b6000604082019050611d016000830185611163565b611d0e6020830184611739565b9392505050565b60008115159050919050565b611d2a81611d15565b8114611d3557600080fd5b50565b600081519050611d4781611d21565b92915050565b600060208284031215611d6357611d62610f7e565b5b6000611d7184828501611d38565b91505092915050565b6000611d85826111b9565b9050919050565b611d9581611d7a565b82525050565b600081519050919050565b600082825260208201905092915050565b6000819050602082019050919050565b6000611dd2826111b9565b9050919050565b611de281611dc7565b82525050565b6000611df48383611dd9565b60208301905092915050565b6000602082019050919050565b6000611e1882611d9b565b611e228185611da6565b9350611e2d83611db7565b8060005b83811015611e5e578151611e458882611de8565b9750611e5083611e00565b925050600181019050611e31565b5085935050505092915050565b600081519050919050565b600082825260208201905092915050565b6000819050602082019050919050565b6000611ea38383611aa9565b60208301905092915050565b6000602082019050919050565b6000611ec782611e6b565b611ed18185611e76565b9350611edc83611e87565b8060005b83811015611f0d578151611ef48882611e97565b9750611eff83611eaf565b925050600181019050611ee0565b5085935050505092915050565b6000611f2582611a45565b611f2f81856116fb565b9350611f3f8185602086016118d1565b611f4881611207565b840191505092915050565b6000608082019050611f686000830187611d8c565b8181036020830152611f7a8186611e0d565b90508181036040830152611f8e8185611ebc565b90508181036060830152611fa28184611f1a565b905095945050505050565b600081519050919050565b6000611fc382611fad565b611fcd81856115e3565b9350611fdd8185602086016118d1565b611fe681611207565b840191505092915050565b6000604082019050818103600083015261200b8185611fb8565b905061201a6020830184611739565b9392505050565b6000604082019050818103600083015261203b8185611fb8565b905061204a6020830184611163565b9392505050565b600081905092915050565b600061206782611a45565b6120718185612051565b93506120818185602086016118d1565b80840191505092915050565b6000612099828461205c565b915081905092915050565b7f5341000000000000000000000000000000000000000000000000000000000000600082015250565b60006120da6002836115e3565b91506120e5826120a4565b602082019050919050565b60006020820190508181036000830152612109816120cd565b9050919050565b7f4e487b7100000000000000000000000000000000000000000000000000000000600052605160045260246000fdfe457865637574696e67206f7065726174696f6e2077697468206c6f616e20616d6f756e743aa26469706673582212202356e90dba6daa2f5cdd3d93a6edce3d10c34e243977455ebadb207ddf32563464736f6c634300081c0033",
  "devdoc": {
    "kind": "dev",
    "methods": {
      "receiveFlashLoan(address[],uint256[],uint256[],bytes)": {
        "details": "When `flashLoan` is called on the Vault, it invokes the `receiveFlashLoan` hook on the recipient. At the time of the call, the Vault will have transferred `amounts` for `tokens` to the recipient. Before this call returns, the recipient must have transferred `amounts` plus `feeAmounts` for each token back to the Vault, or else the entire flash loan will revert. `userData` is the same value passed in the `IVault.flashLoan` call."
      },
      "simpleArbitrage(address,address,bytes,uint256,bytes,uint256,uint256)": {
        "params": {
          "backwardPath": "Uniswap V3 path bytes for backward leg (tokenOut  ...  tokenIn)",
          "borrowAmount": "Amount of tokenIn to borrow and start with (TokenIn Amount)",
          "forwardPath": "Uniswap V3 path bytes for forward leg (tokenIn  ...  tokenOut)",
          "tokenIn": "The initial token to borrow and swap",
          "tokenOut": "The intermediate token after forward swap"
        }
      }
    },
    "version": 1
  },
  "userdoc": {
    "kind": "user",
    "methods": {
      "simpleArbitrage(address,address,bytes,uint256,bytes,uint256,uint256)": {
        "notice": "Initiates a flash-loan-backed arbitrage with custom Uniswap V3 paths"
      }
    },
    "version": 1
  },
  "storageLayout": {
    "storage": [
      {
        "astId": 1466,
        "contract": "contracts/Arbitrage.sol:Arbitrage",
        "label": "owner",
        "offset": 0,
        "slot": "0",
        "type": "t_address"
      }
    ],
    "types": {
      "t_address": {
        "encoding": "inplace",
        "label": "address",
        "numberOfBytes": "20"
      }
    }
  }
}